{
  "contractName": "CGXMultiSigWallet",
  "abi": [
    {
      "constant": false,
      "inputs": [
        {
          "name": "_to",
          "type": "address"
        }
      ],
      "name": "destroy",
      "outputs": [],
      "payable": false,
      "stateMutability": "nonpayable",
      "type": "function"
    },
    {
      "constant": true,
      "inputs": [
        {
          "name": "_addr",
          "type": "address"
        }
      ],
      "name": "isOwner",
      "outputs": [
        {
          "name": "",
          "type": "bool"
        }
      ],
      "payable": false,
      "stateMutability": "view",
      "type": "function"
    },
    {
      "constant": false,
      "inputs": [],
      "name": "resetSpentToday",
      "outputs": [],
      "payable": false,
      "stateMutability": "nonpayable",
      "type": "function"
    },
    {
      "constant": true,
      "inputs": [],
      "name": "dailyLimit",
      "outputs": [
        {
          "name": "",
          "type": "uint256"
        }
      ],
      "payable": false,
      "stateMutability": "view",
      "type": "function"
    },
    {
      "constant": true,
      "inputs": [],
      "name": "lastDay",
      "outputs": [
        {
          "name": "",
          "type": "uint256"
        }
      ],
      "payable": false,
      "stateMutability": "view",
      "type": "function"
    },
    {
      "constant": false,
      "inputs": [
        {
          "name": "_h",
          "type": "bytes32"
        }
      ],
      "name": "confirm",
      "outputs": [
        {
          "name": "",
          "type": "bool"
        }
      ],
      "payable": false,
      "stateMutability": "nonpayable",
      "type": "function"
    },
    {
      "constant": false,
      "inputs": [
        {
          "name": "_newLimit",
          "type": "uint256"
        }
      ],
      "name": "setDailyLimit",
      "outputs": [],
      "payable": false,
      "stateMutability": "nonpayable",
      "type": "function"
    },
    {
      "constant": false,
      "inputs": [
        {
          "name": "_to",
          "type": "address"
        },
        {
          "name": "_value",
          "type": "uint256"
        },
        {
          "name": "_data",
          "type": "bytes"
        }
      ],
      "name": "execute",
      "outputs": [
        {
          "name": "_r",
          "type": "bytes32"
        }
      ],
      "payable": false,
      "stateMutability": "nonpayable",
      "type": "function"
    },
    {
      "constant": false,
      "inputs": [
        {
          "name": "_operation",
          "type": "bytes32"
        }
      ],
      "name": "revoke",
      "outputs": [],
      "payable": false,
      "stateMutability": "nonpayable",
      "type": "function"
    },
    {
      "constant": true,
      "inputs": [
        {
          "name": "_operation",
          "type": "bytes32"
        },
        {
          "name": "_owner",
          "type": "address"
        }
      ],
      "name": "hasConfirmed",
      "outputs": [
        {
          "name": "",
          "type": "bool"
        }
      ],
      "payable": false,
      "stateMutability": "view",
      "type": "function"
    },
    {
      "constant": true,
      "inputs": [
        {
          "name": "ownerIndex",
          "type": "uint256"
        }
      ],
      "name": "getOwner",
      "outputs": [
        {
          "name": "",
          "type": "address"
        }
      ],
      "payable": false,
      "stateMutability": "view",
      "type": "function"
    },
    {
      "constant": true,
      "inputs": [],
      "name": "required",
      "outputs": [
        {
          "name": "",
          "type": "uint256"
        }
      ],
      "payable": false,
      "stateMutability": "view",
      "type": "function"
    },
    {
      "constant": true,
      "inputs": [],
      "name": "spentToday",
      "outputs": [
        {
          "name": "",
          "type": "uint256"
        }
      ],
      "payable": false,
      "stateMutability": "view",
      "type": "function"
    },
    {
      "inputs": [
        {
          "name": "_owners",
          "type": "address[]"
        },
        {
          "name": "_required",
          "type": "uint256"
        }
      ],
      "payable": false,
      "stateMutability": "nonpayable",
      "type": "constructor"
    },
    {
      "payable": true,
      "stateMutability": "payable",
      "type": "fallback"
    },
    {
      "anonymous": false,
      "inputs": [
        {
          "indexed": false,
          "name": "owner",
          "type": "address"
        },
        {
          "indexed": false,
          "name": "operation",
          "type": "bytes32"
        }
      ],
      "name": "Confirmation",
      "type": "event"
    },
    {
      "anonymous": false,
      "inputs": [
        {
          "indexed": false,
          "name": "owner",
          "type": "address"
        },
        {
          "indexed": false,
          "name": "operation",
          "type": "bytes32"
        }
      ],
      "name": "Revoke",
      "type": "event"
    },
    {
      "anonymous": false,
      "inputs": [
        {
          "indexed": false,
          "name": "_from",
          "type": "address"
        },
        {
          "indexed": false,
          "name": "value",
          "type": "uint256"
        }
      ],
      "name": "Deposit",
      "type": "event"
    },
    {
      "anonymous": false,
      "inputs": [
        {
          "indexed": false,
          "name": "owner",
          "type": "address"
        },
        {
          "indexed": false,
          "name": "value",
          "type": "uint256"
        },
        {
          "indexed": false,
          "name": "to",
          "type": "address"
        },
        {
          "indexed": false,
          "name": "data",
          "type": "bytes"
        }
      ],
      "name": "SingleTransact",
      "type": "event"
    },
    {
      "anonymous": false,
      "inputs": [
        {
          "indexed": false,
          "name": "owner",
          "type": "address"
        },
        {
          "indexed": false,
          "name": "operation",
          "type": "bytes32"
        },
        {
          "indexed": false,
          "name": "value",
          "type": "uint256"
        },
        {
          "indexed": false,
          "name": "to",
          "type": "address"
        },
        {
          "indexed": false,
          "name": "data",
          "type": "bytes"
        }
      ],
      "name": "MultiTransact",
      "type": "event"
    },
    {
      "anonymous": false,
      "inputs": [
        {
          "indexed": false,
          "name": "operation",
          "type": "bytes32"
        },
        {
          "indexed": false,
          "name": "initiator",
          "type": "address"
        },
        {
          "indexed": false,
          "name": "value",
          "type": "uint256"
        },
        {
          "indexed": false,
          "name": "to",
          "type": "address"
        },
        {
          "indexed": false,
          "name": "data",
          "type": "bytes"
        }
      ],
      "name": "ConfirmationNeeded",
      "type": "event"
    },
    {
      "constant": false,
      "inputs": [
        {
          "name": "_from",
          "type": "address"
        },
        {
          "name": "_to",
          "type": "address"
        }
      ],
      "name": "changeOwner",
      "outputs": [],
      "payable": false,
      "stateMutability": "nonpayable",
      "type": "function"
    }
  ],
  "bytecode": "0x608060405234801561001057600080fd5b50604051610da1380380610da18339810160405280516020820151910190818160008083838233600180018054600160a060020a031916600160a060020a0392831617905533166000908152610101602052604081206001905590505b825181101561010657828181518110151561008457fe5b60209081029091010151600160028301610100811061009f57fe5b0160006101000a815481600160a060020a030219169083600160a060020a0316021790555080600201610101600085848151811015156100db57fe5b6020908102909101810151600160a060020a031682528101919091526040016000205560010161006d565b600082905561010082111561011a57600080fd5b505050610104819055610134640100000000610144810204565b610106555061014d945050505050565b62015180420490565b610c458061015c6000396000f3006080604052600436106100ce5763ffffffff7c0100000000000000000000000000000000000000000000000000000000600035041662f55d9d811461011d5780632f54bf6e1461013e5780635c52c2f51461017357806367eeba0c146101885780636b0c932d146101af578063797af627146101c4578063b20d30a9146101dc578063b61d27f6146101f4578063b75c7dc614610225578063c2cf73261461023d578063c41a360a14610261578063dc8452cd14610295578063f00d4b5d146102aa578063f059cf2b146102d1575b600034111561011b5760408051600160a060020a033316815234602082015281517fe1fffcc4923d04b559f4d29a8bfc6cda04eb5b0d3c460751c2402c5c5cc9109c929181900390910190a15b005b34801561012957600080fd5b5061011b600160a060020a03600435166102e6565b34801561014a57600080fd5b5061015f600160a060020a0360043516610322565b604080519115158252519081900360200190f35b34801561017f57600080fd5b5061011b610343565b34801561019457600080fd5b5061019d61037a565b60408051918252519081900360200190f35b3480156101bb57600080fd5b5061019d610381565b3480156101d057600080fd5b5061015f600435610388565b3480156101e857600080fd5b5061011b6004356105ac565b34801561020057600080fd5b5061019d60048035600160a060020a03169060248035916044359182019101356105e1565b34801561023157600080fd5b5061011b600435610803565b34801561024957600080fd5b5061015f600435600160a060020a03602435166108ad565b34801561026d57600080fd5b50610279600435610902565b60408051600160a060020a039092168252519081900360200190f35b3480156102a157600080fd5b5061019d610925565b3480156102b657600080fd5b5061011b600160a060020a036004358116906024351661092b565b3480156102dd57600080fd5b5061019d610930565b60003660405180838380828437820191505092505050604051809103902061030d81610937565b1561031e5781600160a060020a0316ff5b5050565b600160a060020a03811660009081526101016020526040812054115b919050565b60003660405180838380828437820191505092505050604051809103902061036a81610937565b1561037757610377610a9a565b50565b6101045481565b6101065481565b60008161039481610937565b156105a65760008381526101076020526040902054600160a060020a0316156105a65760008381526101076020526040908190208054600180830154935160029384018054600160a060020a0390941695949093919283928592918116156101000260001901160480156104495780601f1061041e57610100808354040283529160200191610449565b820191906000526020600020905b81548152906001019060200180831161042c57829003601f168201915b505091505060006040518083038185875af192505050151561046757fe5b6000838152610107602090815260409182902060018082015482548551600160a060020a033381811683529682018b905296810183905295166060860181905260a06080870181815260029586018054958616156101000260001901909516959095049087018190527fe7c957c06e9a662c1a6c77366179f5b702b97651dc28eee7d5bf1dff6e40bb4a968a9593949293909160c08301908490801561054e5780601f106105235761010080835404028352916020019161054e565b820191906000526020600020905b81548152906001019060200180831161053157829003601f168201915b5050965050505050505060405180910390a1600083815261010760205260408120805473ffffffffffffffffffffffffffffffffffffffff19168155600181018290559061059f6002830182610b14565b5050600191505b50919050565b6000366040518083838082843782019150509250505060405180910390206105d381610937565b1561031e5761031e82610aa2565b60006105ec33610322565b15156105f757600080fd5b61060084610aa8565b156106d5577f92ca3a80853e6663fa31fa10b99225f18d4902939b4c53a9caae9043f6efd00433858786866040518086600160a060020a0316600160a060020a0316815260200185815260200184600160a060020a0316600160a060020a0316815260200180602001828103825284848281815260200192508082843760405192018290039850909650505050505050a184600160a060020a03168484846040518083838082843782019150509250505060006040518083038185875af19250505015156106cd57600080fd5b5060006107fb565b6000364360405180848480828437820191505082815260200193505050506040518091039020905061070681610388565b158015610729575060008181526101076020526040902054600160a060020a0316155b156107fb57600081815261010760205260409020805473ffffffffffffffffffffffffffffffffffffffff1916600160a060020a03871617815560018101859055610778906002018484610b58565b5060408051828152600160a060020a033381811660208401529282018790528716606082015260a0608082018181529082018590527f1733cbb53659d713b79580f79f3f9ff215f78a7c7aa45890f3b89fc5cddfbf32928492909188918a918991899160c082018484808284376040519201829003995090975050505050505050a15b949350505050565b600160a060020a03331660009081526101016020526040812054908082151561082b576108a7565b50506000828152610102602052604081206001810154600284900a9290831611156108a75780546001908101825581018054839003905560408051600160a060020a03331681526020810186905281517fc7fb647e59b18047309aa15aad418e5d7ca96d173ad704f1031a2c3d7591734b929181900390910190a15b50505050565b600082815261010260209081526040808320600160a060020a0385168452610101909252822054828115156108e557600093506108f9565b8160020a9050808360010154166000141593505b50505092915050565b60006001828101610100811061091457fe5b0154600160a060020a031692915050565b60005481565b600080fd5b6101055481565b600160a060020a03331660009081526101016020526040812054818082151561095f57600080fd5b600085815261010260205260409020805490925015156109be5760008054835560018084019190915561010380549161099a91908301610bd6565b60028301819055610103805487929081106109b157fe5b6000918252602090912001555b8260020a90508082600101541660001415610a8d5760408051600160a060020a03331681526020810187905281517fe1c52dc63b719ade82e8bea94cc41a0d5d28e4aaf536adb5e9cccc9ff8c1aeda929181900390910190a18154600110610a7a576000858152610102602052604090206002015461010380549091908110610a4357fe5b6000918252602080832090910182905586825261010290526040812081815560018082018390556002909101919091559350610a92565b8154600019018255600182018054821790555b600093505b505050919050565b600061010555565b61010455565b600061010654610ab6610b0a565b1115610acf57600061010555610aca610b0a565b610106555b6101055482810110801590610aec57506101045482610105540111155b15610b025750610105805482019055600161033e565b506000919050565b6201518042045b90565b50805460018160011615610100020316600290046000825580601f10610b3a5750610377565b601f0160209004906000526020600020908101906103779190610bff565b828054600181600116156101000203166002900490600052602060002090601f016020900481019282601f10610b995782800160ff19823516178555610bc6565b82800160010185558215610bc6579182015b82811115610bc6578235825591602001919060010190610bab565b50610bd2929150610bff565b5090565b815481835581811115610bfa57600083815260209020610bfa918101908301610bff565b505050565b610b1191905b80821115610bd25760008155600101610c055600a165627a7a723058202f8e2ae98484612102a8c510e858f29f2f5d9a34275e263cd94c537f1d5d18490029",
  "source": "pragma solidity ^0.4.8;\n\nimport 'zeppelin-solidity/contracts/MultisigWallet.sol';\n\n\n/// @title Multisignature wallet - Allows multiple parties to agree on transactions before execution.\n/// @author Stefan George - <stefan.george@consensys.net>\ncontract CGXMultiSigWallet is MultisigWallet {\n\n    function CGXMultiSigWallet(address[] _owners, uint _required)       \n    MultisigWallet(_owners, _required, 0) { }\n\n    function changeOwner(address _from, address _to)\n        external\n    {\n    \tthrow; // can't change owners\n    }\n}\n",
  "sourcePath": "/home/neo/Desktop/1/contracts/CGXMultiSigWallet.sol",
  "compiler": {
    "name": "solc",
    "version": "0.4.23+commit.124ca40d.Emscripten.clang"
  },
  "schemaVersion": "2.0.0",
  "updatedAt": "2018-05-01T01:23:06.767Z"
}