{
  "contractName": "CGXToken",
  "abi": [
    {
      "constant": true,
      "inputs": [
        {
          "name": "_holder",
          "type": "address"
        }
      ],
      "name": "tokenGrantsCount",
      "outputs": [
        {
          "name": "index",
          "type": "uint256"
        }
      ],
      "payable": false,
      "stateMutability": "view",
      "type": "function"
    },
    {
      "constant": true,
      "inputs": [],
      "name": "creator",
      "outputs": [
        {
          "name": "",
          "type": "address"
        }
      ],
      "payable": false,
      "stateMutability": "view",
      "type": "function"
    },
    {
      "constant": true,
      "inputs": [],
      "name": "name",
      "outputs": [
        {
          "name": "",
          "type": "string"
        }
      ],
      "payable": false,
      "stateMutability": "view",
      "type": "function"
    },
    {
      "constant": false,
      "inputs": [
        {
          "name": "_spender",
          "type": "address"
        },
        {
          "name": "_value",
          "type": "uint256"
        }
      ],
      "name": "approve",
      "outputs": [
        {
          "name": "",
          "type": "bool"
        }
      ],
      "payable": false,
      "stateMutability": "nonpayable",
      "type": "function"
    },
    {
      "constant": true,
      "inputs": [],
      "name": "totalSupply",
      "outputs": [
        {
          "name": "",
          "type": "uint256"
        }
      ],
      "payable": false,
      "stateMutability": "view",
      "type": "function"
    },
    {
      "constant": false,
      "inputs": [
        {
          "name": "_from",
          "type": "address"
        },
        {
          "name": "_to",
          "type": "address"
        },
        {
          "name": "_value",
          "type": "uint256"
        }
      ],
      "name": "transferFrom",
      "outputs": [
        {
          "name": "",
          "type": "bool"
        }
      ],
      "payable": false,
      "stateMutability": "nonpayable",
      "type": "function"
    },
    {
      "constant": true,
      "inputs": [
        {
          "name": "",
          "type": "address"
        },
        {
          "name": "",
          "type": "uint256"
        }
      ],
      "name": "grants",
      "outputs": [
        {
          "name": "granter",
          "type": "address"
        },
        {
          "name": "value",
          "type": "uint256"
        },
        {
          "name": "cliff",
          "type": "uint64"
        },
        {
          "name": "vesting",
          "type": "uint64"
        },
        {
          "name": "start",
          "type": "uint64"
        },
        {
          "name": "revokable",
          "type": "bool"
        },
        {
          "name": "burnsOnRevoke",
          "type": "bool"
        }
      ],
      "payable": false,
      "stateMutability": "view",
      "type": "function"
    },
    {
      "constant": true,
      "inputs": [],
      "name": "decimals",
      "outputs": [
        {
          "name": "",
          "type": "uint256"
        }
      ],
      "payable": false,
      "stateMutability": "view",
      "type": "function"
    },
    {
      "constant": true,
      "inputs": [
        {
          "name": "_holder",
          "type": "address"
        },
        {
          "name": "_grantId",
          "type": "uint256"
        }
      ],
      "name": "tokenGrant",
      "outputs": [
        {
          "name": "granter",
          "type": "address"
        },
        {
          "name": "value",
          "type": "uint256"
        },
        {
          "name": "vested",
          "type": "uint256"
        },
        {
          "name": "start",
          "type": "uint64"
        },
        {
          "name": "cliff",
          "type": "uint64"
        },
        {
          "name": "vesting",
          "type": "uint64"
        },
        {
          "name": "revokable",
          "type": "bool"
        },
        {
          "name": "burnsOnRevoke",
          "type": "bool"
        }
      ],
      "payable": false,
      "stateMutability": "view",
      "type": "function"
    },
    {
      "constant": true,
      "inputs": [
        {
          "name": "holder",
          "type": "address"
        }
      ],
      "name": "lastTokenIsTransferableDate",
      "outputs": [
        {
          "name": "date",
          "type": "uint64"
        }
      ],
      "payable": false,
      "stateMutability": "view",
      "type": "function"
    },
    {
      "constant": true,
      "inputs": [
        {
          "name": "_owner",
          "type": "address"
        }
      ],
      "name": "balanceOf",
      "outputs": [
        {
          "name": "balance",
          "type": "uint256"
        }
      ],
      "payable": false,
      "stateMutability": "view",
      "type": "function"
    },
    {
      "constant": true,
      "inputs": [],
      "name": "symbol",
      "outputs": [
        {
          "name": "",
          "type": "string"
        }
      ],
      "payable": false,
      "stateMutability": "view",
      "type": "function"
    },
    {
      "constant": false,
      "inputs": [
        {
          "name": "_to",
          "type": "address"
        },
        {
          "name": "_value",
          "type": "uint256"
        },
        {
          "name": "_start",
          "type": "uint64"
        },
        {
          "name": "_cliff",
          "type": "uint64"
        },
        {
          "name": "_vesting",
          "type": "uint64"
        },
        {
          "name": "_revokable",
          "type": "bool"
        },
        {
          "name": "_burnsOnRevoke",
          "type": "bool"
        }
      ],
      "name": "grantVestedTokens",
      "outputs": [],
      "payable": false,
      "stateMutability": "nonpayable",
      "type": "function"
    },
    {
      "constant": false,
      "inputs": [
        {
          "name": "_to",
          "type": "address"
        },
        {
          "name": "_value",
          "type": "uint256"
        }
      ],
      "name": "transfer",
      "outputs": [
        {
          "name": "",
          "type": "bool"
        }
      ],
      "payable": false,
      "stateMutability": "nonpayable",
      "type": "function"
    },
    {
      "constant": true,
      "inputs": [
        {
          "name": "holder",
          "type": "address"
        },
        {
          "name": "time",
          "type": "uint64"
        }
      ],
      "name": "transferableTokens",
      "outputs": [
        {
          "name": "",
          "type": "uint256"
        }
      ],
      "payable": false,
      "stateMutability": "view",
      "type": "function"
    },
    {
      "constant": true,
      "inputs": [
        {
          "name": "_owner",
          "type": "address"
        },
        {
          "name": "_spender",
          "type": "address"
        }
      ],
      "name": "allowance",
      "outputs": [
        {
          "name": "remaining",
          "type": "uint256"
        }
      ],
      "payable": false,
      "stateMutability": "view",
      "type": "function"
    },
    {
      "constant": true,
      "inputs": [
        {
          "name": "tokens",
          "type": "uint256"
        },
        {
          "name": "time",
          "type": "uint256"
        },
        {
          "name": "start",
          "type": "uint256"
        },
        {
          "name": "cliff",
          "type": "uint256"
        },
        {
          "name": "vesting",
          "type": "uint256"
        }
      ],
      "name": "calculateVestedTokens",
      "outputs": [
        {
          "name": "",
          "type": "uint256"
        }
      ],
      "payable": false,
      "stateMutability": "view",
      "type": "function"
    },
    {
      "constant": false,
      "inputs": [
        {
          "name": "_holder",
          "type": "address"
        },
        {
          "name": "_grantId",
          "type": "uint256"
        }
      ],
      "name": "revokeTokenGrant",
      "outputs": [],
      "payable": false,
      "stateMutability": "nonpayable",
      "type": "function"
    },
    {
      "inputs": [
        {
          "name": "supply",
          "type": "uint256"
        }
      ],
      "payable": false,
      "stateMutability": "nonpayable",
      "type": "constructor"
    },
    {
      "payable": false,
      "stateMutability": "nonpayable",
      "type": "fallback"
    },
    {
      "anonymous": false,
      "inputs": [
        {
          "indexed": true,
          "name": "from",
          "type": "address"
        },
        {
          "indexed": true,
          "name": "to",
          "type": "address"
        },
        {
          "indexed": false,
          "name": "value",
          "type": "uint256"
        },
        {
          "indexed": false,
          "name": "grantId",
          "type": "uint256"
        }
      ],
      "name": "NewTokenGrant",
      "type": "event"
    },
    {
      "anonymous": false,
      "inputs": [
        {
          "indexed": true,
          "name": "owner",
          "type": "address"
        },
        {
          "indexed": true,
          "name": "spender",
          "type": "address"
        },
        {
          "indexed": false,
          "name": "value",
          "type": "uint256"
        }
      ],
      "name": "Approval",
      "type": "event"
    },
    {
      "anonymous": false,
      "inputs": [
        {
          "indexed": true,
          "name": "from",
          "type": "address"
        },
        {
          "indexed": true,
          "name": "to",
          "type": "address"
        },
        {
          "indexed": false,
          "name": "value",
          "type": "uint256"
        }
      ],
      "name": "Transfer",
      "type": "event"
    },
    {
      "constant": true,
      "inputs": [
        {
          "name": "_owner",
          "type": "address"
        }
      ],
      "name": "vestedBalanceOf",
      "outputs": [
        {
          "name": "balance",
          "type": "uint256"
        }
      ],
      "payable": false,
      "stateMutability": "view",
      "type": "function"
    },
    {
      "constant": false,
      "inputs": [],
      "name": "drain",
      "outputs": [],
      "payable": false,
      "stateMutability": "nonpayable",
      "type": "function"
    }
  ],
  "bytecode": "0x6080604052601460035534801561001557600080fd5b506040516020806117438339810160409081529051600081815560058054600160a060020a033316600160a060020a0319909116811790915581526001602052919091205560026003556116d58061006e6000396000f3006080604052600436106101115763ffffffff7c010000000000000000000000000000000000000000000000000000000060003504166302a72a4c811461012357806302d05d3f1461015657806306fdde0314610187578063095ea7b3146102115780630e2d1a2a1461024957806318160ddd1461026a57806323b872dd1461027f5780632c71e60a146102a9578063313ce5671461031f578063600e85b7146103345780636c182e99146103b357806370a08231146103f157806395d89b41146104125780639754a4d9146104275780639890220b14610470578063a9059cbb14610485578063d347c205146104a9578063dd62ed3e146104d7578063df3c211b146104fe578063eb944e4c14610522575b34801561011d57600080fd5b50600080fd5b34801561012f57600080fd5b50610144600160a060020a0360043516610546565b60408051918252519081900360200190f35b34801561016257600080fd5b5061016b610561565b60408051600160a060020a039092168252519081900360200190f35b34801561019357600080fd5b5061019c610570565b6040805160208082528351818301528351919283929083019185019080838360005b838110156101d65781810151838201526020016101be565b50505050905090810190601f1680156102035780820380516001836020036101000a031916815260200191505b509250505060405180910390f35b34801561021d57600080fd5b50610235600160a060020a03600435166024356105a7565b604080519115158252519081900360200190f35b34801561025557600080fd5b50610144600160a060020a036004351661064a565b34801561027657600080fd5b5061014461065c565b34801561028b57600080fd5b50610235600160a060020a0360043581169060243516604435610662565b3480156102b557600080fd5b506102cd600160a060020a0360043516602435610691565b60408051600160a060020a039098168852602088019690965267ffffffffffffffff9485168787015292841660608701529216608085015290151560a0840152151560c0830152519081900360e00190f35b34801561032b57600080fd5b50610144610722565b34801561034057600080fd5b50610358600160a060020a0360043516602435610727565b60408051600160a060020a03909916895260208901979097528787019590955267ffffffffffffffff9384166060880152918316608087015290911660a0850152151560c0840152151560e083015251908190036101000190f35b3480156103bf57600080fd5b506103d4600160a060020a036004351661093c565b6040805167ffffffffffffffff9092168252519081900360200190f35b3480156103fd57600080fd5b50610144600160a060020a03600435166109c6565b34801561041e57600080fd5b5061019c6109e1565b34801561043357600080fd5b5061046e600160a060020a036004351660243567ffffffffffffffff6044358116906064358116906084351660a435151560c4351515610a18565b005b34801561047c57600080fd5b5061046e610c99565b34801561049157600080fd5b50610235600160a060020a0360043516602435610ceb565b3480156104b557600080fd5b50610144600160a060020a036004351667ffffffffffffffff60243516610d18565b3480156104e357600080fd5b50610144600160a060020a0360043581169060243516610e71565b34801561050a57600080fd5b50610144600435602435604435606435608435610e9c565b34801561052e57600080fd5b5061046e600160a060020a0360043516602435610ef4565b600160a060020a031660009081526004602052604090205490565b600554600160a060020a031681565b60408051808201909152600a81527f4367637820546f6b656e00000000000000000000000000000000000000000000602082015281565b60008115806105d95750600160a060020a03338116600090815260026020908152604080832093871683529290522054155b15156105e457600080fd5b600160a060020a03338116600081815260026020908152604080832094881680845294825291829020869055815186815291517f8c5be1e5ebec7d5bd14f71427d1e84f3dd0314c0f7b2291e5b200ac8c7c3b9259281900390910190a350600192915050565b60006106568242610d18565b92915050565b60005481565b600083826106708242610d18565b81111561067c57600080fd5b610687868686611333565b9695505050505050565b6004602052816000526040600020818154811015156106ac57fe5b6000918252602090912060039091020180546001820154600290920154600160a060020a03909116935090915067ffffffffffffffff808216916801000000000000000081048216917001000000000000000000000000000000008204169060ff60c060020a820481169160c860020a90041687565b601281565b6000806000806000806000806000600460008c600160a060020a0316600160a060020a031681526020019081526020016000208a81548110151561076757fe5b906000526020600020906003020190508060000160009054906101000a9004600160a060020a03169850806001015497508060020160109054906101000a900467ffffffffffffffff1695508060020160009054906101000a900467ffffffffffffffff1694508060020160089054906101000a900467ffffffffffffffff1693508060020160189054906101000a900460ff1692508060020160199054906101000a900460ff16915061092c8160e060405190810160405290816000820160009054906101000a9004600160a060020a0316600160a060020a0316600160a060020a03168152602001600182015481526020016002820160009054906101000a900467ffffffffffffffff1667ffffffffffffffff1667ffffffffffffffff1681526020016002820160089054906101000a900467ffffffffffffffff1667ffffffffffffffff1667ffffffffffffffff1681526020016002820160109054906101000a900467ffffffffffffffff1667ffffffffffffffff1667ffffffffffffffff1681526020016002820160189054906101000a900460ff161515151581526020016002820160199054906101000a900460ff16151515158152505042611446565b9650509295985092959890939650565b600160a060020a03811660009081526004602052604081205442915b818110156109bf57600160a060020a038416600090815260046020526040902080546109b591908390811061098957fe5b906000526020600020906003020160020160089054906101000a900467ffffffffffffffff1684611494565b9250600101610958565b5050919050565b600160a060020a031660009081526001602052604090205490565b60408051808201909152600381527f4347580000000000000000000000000000000000000000000000000000000000602082015281565b60008567ffffffffffffffff168567ffffffffffffffff1610158015610a5257508467ffffffffffffffff168467ffffffffffffffff1610155b1515610a5d57600080fd5b600354610a6989610546565b10610a7357600080fd5b600160a060020a03881660009081526004602052604090819020815160e08101909252908085610aa4576000610aa6565b335b600160a060020a03908116825260208083018c905267ffffffffffffffff8a81166040808601919091528a82166060808701919091528d83166080808801919091528b151560a0808901919091528b151560c09889015289546001808201808d5560009c8d529b8890208b51600390930201805473ffffffffffffffffffffffffffffffffffffffff19169290991691909117885595890151958701959095559187015160029095018054918801519288015194880151979096015167ffffffffffffffff19909116948316949094176fffffffffffffffff0000000000000000191668010000000000000000918316919091021777ffffffffffffffff00000000000000000000000000000000191670010000000000000000000000000000000092909116919091021778ff000000000000000000000000000000000000000000000000191660c060020a931515939093029290921779ff00000000000000000000000000000000000000000000000000191660c860020a921515929092029190911790559050610c388888610ceb565b5087600160a060020a031633600160a060020a03167ff9565aecd648a0466ffb964a79eeccdf1120ad6276189c687a6e9fe73984d9bb8960018503604051808381526020018281526020019250505060405180910390a35050505050505050565b60055433600160a060020a03908116911614610cb457600080fd5b600554604051600160a060020a039182169130163180156108fc02916000818181858888f193505050501515610ce957600080fd5b565b60003382610cf98242610d18565b811115610d0557600080fd5b610d0f85856114bf565b95945050505050565b6000806000806000610d2987610546565b9350831515610d4357610d3c878761157e565b9450610e67565b60009250600091505b83821015610e3d57600160a060020a03871660009081526004602052604090208054610e30918591610e2b919086908110610d8357fe5b60009182526020918290206040805160e08101825260039093029091018054600160a060020a0316835260018101549383019390935260029092015467ffffffffffffffff80821693830193909352680100000000000000008104831660608301527001000000000000000000000000000000008104909216608082015260ff60c060020a83048116151560a083015260c860020a909204909116151560c082015289611589565b6115a9565b9250600190910190610d4c565b610e4f610e49886109c6565b846115b8565b9050610e6481610e5f898961157e565b6115ca565b94505b5050505092915050565b600160a060020a03918216600090815260026020908152604080832093909416825291909152205490565b60008083861015610eb05760009150610eea565b828610610ebf57869150610eea565b610ee4610ed588610ed089896115b8565b6115d9565b610edf85886115b8565b6115fd565b90508091505b5095945050505050565b600160a060020a038216600090815260046020526040812080548291829185908110610f1c57fe5b906000526020600020906003020192508260020160189054906101000a900460ff161515610f4957600080fd5b825433600160a060020a03908116911614610f6357600080fd5b600283015460c860020a900460ff16610f7c5733610f80565b61dead5b6040805160e0810182528554600160a060020a0316815260018601546020820152600286015467ffffffffffffffff80821693830193909352680100000000000000008104831660608301527001000000000000000000000000000000008104909216608082015260ff60c060020a83048116151560a083015260c860020a909204909116151560c08201529092506110199042611589565b600160a060020a03861660009081526004602052604090208054919250908590811061104157fe5b600091825260208083206003909202909101805473ffffffffffffffffffffffffffffffffffffffff1916815560018082018490556002909101805479ffffffffffffffffffffffffffffffffffffffffffffffffffff19169055600160a060020a038816835260049091526040909120805490916110c6919063ffffffff6115b816565b815481106110d057fe5b90600052602060002090600302016004600087600160a060020a0316600160a060020a031681526020019081526020016000208581548110151561111057fe5b600091825260208083208454600390930201805473ffffffffffffffffffffffffffffffffffffffff1916600160a060020a03938416178155600180860154908201556002948501805495909101805467ffffffffffffffff191667ffffffffffffffff96871617808255825468010000000000000000908190048816026fffffffffffffffff0000000000000000199091161780825582547001000000000000000000000000000000009081900490971690960277ffffffffffffffff000000000000000000000000000000001990961695909517808655815460ff60c060020a918290048116151590910278ff0000000000000000000000000000000000000000000000001990921691909117808755915460c860020a9081900490911615150279ff00000000000000000000000000000000000000000000000000199091161790935587168152600490915260409020805460001901906112749082611614565b50600160a060020a03821660009081526001602052604090205461129e908263ffffffff6115a916565b600160a060020a0380841660009081526001602052604080822093909355908716815220546112d3908263ffffffff6115b816565b600160a060020a0380871660008181526001602090815260409182902094909455805185815290519286169391927fddf252ad1be2c89b69c2b068fc378daa952ba7f163c4a11628f55a4df523b3ef929181900390910190a35050505050565b600160a060020a03808416600090815260026020908152604080832033851684528252808320549386168352600190915281205490919061137a908463ffffffff6115a916565b600160a060020a0380861660009081526001602052604080822093909355908716815220546113af908463ffffffff6115b816565b600160a060020a0386166000908152600160205260409020556113d8818463ffffffff6115b816565b600160a060020a038087166000818152600260209081526040808320338616845282529182902094909455805187815290519288169391927fddf252ad1be2c89b69c2b068fc378daa952ba7f163c4a11628f55a4df523b3ef929181900390910190a3506001949350505050565b600061148d83602001518367ffffffffffffffff16856080015167ffffffffffffffff16866040015167ffffffffffffffff16876060015167ffffffffffffffff16610e9c565b9392505050565b60008167ffffffffffffffff168367ffffffffffffffff1610156114b8578161148d565b5090919050565b600160a060020a0333166000908152600160205260408120546114e8908363ffffffff6115b816565b600160a060020a03338116600090815260016020526040808220939093559085168152205461151d908363ffffffff6115a916565b600160a060020a038085166000818152600160209081526040918290209490945580518681529051919333909316927fddf252ad1be2c89b69c2b068fc378daa952ba7f163c4a11628f55a4df523b3ef92918290030190a350600192915050565b600061148d836109c6565b600061148d6115988484611446565b60208501519063ffffffff6115b816565b60008282018381101561148d57fe5b6000828211156115c457fe5b50900390565b60008183106114b8578161148d565b60008282028315806115f557508284828115156115f257fe5b04145b151561148d57fe5b600080828481151561160b57fe5b04949350505050565b815481835581811115611640576003028160030283600052602060002091820191016116409190611645565b505050565b6116a691905b808211156116a257805473ffffffffffffffffffffffffffffffffffffffff191681556000600182015560028101805479ffffffffffffffffffffffffffffffffffffffffffffffffffff1916905560030161164b565b5090565b905600a165627a7a72305820a645adf129d67e487dbdeab514f5a58335d50e6b5b42c992ae369ae5e13aacfb0029",
  "source": "pragma solidity ^0.4.8;\n// import \"./StandardToken.sol\";\nimport 'zeppelin-solidity/contracts/token/VestedToken.sol';\nimport 'zeppelin-solidity/contracts/math/SafeMath.sol';\n\ncontract CGXToken is VestedToken {\n\tusing SafeMath for uint;\n\n\t//FIELDS\n\t//CONSTANTS\n\tuint public constant decimals = 18;  // 18 decimal places, the same as ETH.\n\tstring public constant name = \"Cgcx Token\";\n  \tstring public constant symbol = \"CGX\";\n\n\t//ASSIGNED IN INITIALIZATION\n\taddress public creator; //address of the account which may mint new tokens\n\n\t//May only be called by the owner address\n\tmodifier only_owner() {\n\t\tif (msg.sender != creator) throw;\n\t\t_;\n\t}\n\n\n\t// Initialization contract assigns address of crowdfund contract and end time.\n\tfunction CGXToken(uint supply) {\n\t\ttotalSupply = supply;\n\t\tcreator = msg.sender;\n\n\t\tbalances[msg.sender] = supply;\n\n\t\tMAX_GRANTS_PER_ADDRESS = 2;\n\t}\n\n\t// Fallback function throws when called.\n\tfunction() {\n\t\tthrow;\n\t}\n\n\tfunction vestedBalanceOf(address _owner) constant returns (uint balance) {\n\t    return transferableTokens(_owner, uint64(now));\n    }\n\n        //failsafe drain\n\tfunction drain()\n\t\tonly_owner\n\t{\n\t\tif (!creator.send(this.balance)) throw;\n\t}\n}\n",
  "sourcePath": "/home/neo/Desktop/1/contracts/CGXToken.sol",
  "compiler": {
    "name": "solc",
    "version": "0.4.23+commit.124ca40d.Emscripten.clang"
  },
  "schemaVersion": "2.0.0",
  "updatedAt": "2018-05-01T01:17:54.175Z"
}