{
  "contractName": "Contribution",
  "abi": [
    {
      "constant": true,
      "inputs": [],
      "name": "PRICE_STAGE_TWO",
      "outputs": [
        {
          "name": "",
          "type": "uint256"
        }
      ],
      "payable": false,
      "stateMutability": "view",
      "type": "function"
    },
    {
      "constant": true,
      "inputs": [],
      "name": "publicEndTime",
      "outputs": [
        {
          "name": "",
          "type": "uint256"
        }
      ],
      "payable": false,
      "stateMutability": "view",
      "type": "function"
    },
    {
      "constant": true,
      "inputs": [],
      "name": "decimals",
      "outputs": [
        {
          "name": "",
          "type": "uint256"
        }
      ],
      "payable": false,
      "stateMutability": "view",
      "type": "function"
    },
    {
      "constant": true,
      "inputs": [],
      "name": "MAX_SUPPLY",
      "outputs": [
        {
          "name": "",
          "type": "uint256"
        }
      ],
      "payable": false,
      "stateMutability": "view",
      "type": "function"
    },
    {
      "constant": true,
      "inputs": [],
      "name": "ALLOC_SAFT",
      "outputs": [
        {
          "name": "",
          "type": "uint256"
        }
      ],
      "payable": false,
      "stateMutability": "view",
      "type": "function"
    },
    {
      "constant": true,
      "inputs": [],
      "name": "cgxToken",
      "outputs": [
        {
          "name": "",
          "type": "address"
        }
      ],
      "payable": false,
      "stateMutability": "view",
      "type": "function"
    },
    {
      "constant": true,
      "inputs": [],
      "name": "STAGE_FOUR_TIME_END",
      "outputs": [
        {
          "name": "",
          "type": "uint256"
        }
      ],
      "payable": false,
      "stateMutability": "view",
      "type": "function"
    },
    {
      "constant": true,
      "inputs": [],
      "name": "multisigAddress",
      "outputs": [
        {
          "name": "",
          "type": "address"
        }
      ],
      "payable": false,
      "stateMutability": "view",
      "type": "function"
    },
    {
      "constant": true,
      "inputs": [],
      "name": "ALLOC_ILLIQUID_TEAM",
      "outputs": [
        {
          "name": "",
          "type": "uint256"
        }
      ],
      "payable": false,
      "stateMutability": "view",
      "type": "function"
    },
    {
      "constant": true,
      "inputs": [],
      "name": "publicStartTime",
      "outputs": [
        {
          "name": "",
          "type": "uint256"
        }
      ],
      "payable": false,
      "stateMutability": "view",
      "type": "function"
    },
    {
      "constant": true,
      "inputs": [],
      "name": "STAGE_TWO_TIME_END",
      "outputs": [
        {
          "name": "",
          "type": "uint256"
        }
      ],
      "payable": false,
      "stateMutability": "view",
      "type": "function"
    },
    {
      "constant": true,
      "inputs": [],
      "name": "STAGE_ONE_TIME_END",
      "outputs": [
        {
          "name": "",
          "type": "uint256"
        }
      ],
      "payable": false,
      "stateMutability": "view",
      "type": "function"
    },
    {
      "constant": true,
      "inputs": [],
      "name": "ALLOC_FOUNDER_CONTRIB",
      "outputs": [
        {
          "name": "",
          "type": "uint256"
        }
      ],
      "payable": false,
      "stateMutability": "view",
      "type": "function"
    },
    {
      "constant": true,
      "inputs": [],
      "name": "ALLOC_MARKETING",
      "outputs": [
        {
          "name": "",
          "type": "uint256"
        }
      ],
      "payable": false,
      "stateMutability": "view",
      "type": "function"
    },
    {
      "constant": true,
      "inputs": [],
      "name": "ALLOC_CROWDSALE",
      "outputs": [
        {
          "name": "",
          "type": "uint256"
        }
      ],
      "payable": false,
      "stateMutability": "view",
      "type": "function"
    },
    {
      "constant": true,
      "inputs": [],
      "name": "ALLOC_COMPANY",
      "outputs": [
        {
          "name": "",
          "type": "uint256"
        }
      ],
      "payable": false,
      "stateMutability": "view",
      "type": "function"
    },
    {
      "constant": true,
      "inputs": [],
      "name": "ownerAddress",
      "outputs": [
        {
          "name": "",
          "type": "address"
        }
      ],
      "payable": false,
      "stateMutability": "view",
      "type": "function"
    },
    {
      "constant": true,
      "inputs": [],
      "name": "PRICE_STAGE_ONE",
      "outputs": [
        {
          "name": "",
          "type": "uint256"
        }
      ],
      "payable": false,
      "stateMutability": "view",
      "type": "function"
    },
    {
      "constant": true,
      "inputs": [],
      "name": "weiReceived",
      "outputs": [
        {
          "name": "",
          "type": "uint256"
        }
      ],
      "payable": false,
      "stateMutability": "view",
      "type": "function"
    },
    {
      "constant": true,
      "inputs": [],
      "name": "halted",
      "outputs": [
        {
          "name": "",
          "type": "bool"
        }
      ],
      "payable": false,
      "stateMutability": "view",
      "type": "function"
    },
    {
      "constant": true,
      "inputs": [],
      "name": "PRICE_STAGE_FOUR",
      "outputs": [
        {
          "name": "",
          "type": "uint256"
        }
      ],
      "payable": false,
      "stateMutability": "view",
      "type": "function"
    },
    {
      "constant": true,
      "inputs": [],
      "name": "cgcxAddress",
      "outputs": [
        {
          "name": "",
          "type": "address"
        }
      ],
      "payable": false,
      "stateMutability": "view",
      "type": "function"
    },
    {
      "constant": true,
      "inputs": [],
      "name": "PRICE_STAGE_THREE",
      "outputs": [
        {
          "name": "",
          "type": "uint256"
        }
      ],
      "payable": false,
      "stateMutability": "view",
      "type": "function"
    },
    {
      "constant": true,
      "inputs": [],
      "name": "cgxSold",
      "outputs": [
        {
          "name": "",
          "type": "uint256"
        }
      ],
      "payable": false,
      "stateMutability": "view",
      "type": "function"
    },
    {
      "constant": true,
      "inputs": [],
      "name": "CAP",
      "outputs": [
        {
          "name": "",
          "type": "uint256"
        }
      ],
      "payable": false,
      "stateMutability": "view",
      "type": "function"
    },
    {
      "constant": true,
      "inputs": [],
      "name": "STAGE_THREE_TIME_END",
      "outputs": [
        {
          "name": "",
          "type": "uint256"
        }
      ],
      "payable": false,
      "stateMutability": "view",
      "type": "function"
    },
    {
      "inputs": [
        {
          "name": "_multisig",
          "type": "address"
        },
        {
          "name": "_cgcx",
          "type": "address"
        },
        {
          "name": "_publicStartTime",
          "type": "uint256"
        }
      ],
      "payable": false,
      "stateMutability": "nonpayable",
      "type": "constructor"
    },
    {
      "payable": true,
      "stateMutability": "payable",
      "type": "fallback"
    },
    {
      "anonymous": false,
      "inputs": [
        {
          "indexed": true,
          "name": "_recipient",
          "type": "address"
        },
        {
          "indexed": false,
          "name": "_amount",
          "type": "uint256"
        }
      ],
      "name": "Buy",
      "type": "event"
    },
    {
      "constant": false,
      "inputs": [
        {
          "name": "_halted",
          "type": "bool"
        }
      ],
      "name": "toggleHalt",
      "outputs": [],
      "payable": false,
      "stateMutability": "nonpayable",
      "type": "function"
    },
    {
      "constant": true,
      "inputs": [],
      "name": "getPriceRate",
      "outputs": [
        {
          "name": "o_rate",
          "type": "uint256"
        }
      ],
      "payable": false,
      "stateMutability": "view",
      "type": "function"
    },
    {
      "constant": false,
      "inputs": [
        {
          "name": "_to",
          "type": "address"
        }
      ],
      "name": "emptyContribuitionPool",
      "outputs": [],
      "payable": false,
      "stateMutability": "nonpayable",
      "type": "function"
    },
    {
      "constant": false,
      "inputs": [],
      "name": "drain",
      "outputs": [],
      "payable": false,
      "stateMutability": "nonpayable",
      "type": "function"
    }
  ],
  "bytecode": "0x60806040523480156200001157600080fd5b5060405160608062002a5a83398101604090815281516020830151919092015160048054600160a060020a03338116600160a060020a03199283161790925560008390556224ea00830160015560028054838716908316179055600380549285169290911691909117905562000094637735940064010000000062000447810204565b6200009e6200092d565b90815260405190819003602001906000f080158015620000c2573d6000803e3d6000fd5b5060058054600160a060020a031916600160a060020a0392909216919091179055600154620000fa9064010000000062000454810204565b600554600354600160a060020a039182169163a9059cbb91166200012b630bebc20064010000000062000447810204565b6040518363ffffffff167c01000000000000000000000000000000000000000000000000000000000281526004018083600160a060020a0316600160a060020a0316815260200182815260200192505050602060405180830381600087803b1580156200019757600080fd5b505af1158015620001ac573d6000803e3d6000fd5b505050506040513d6020811015620001c357600080fd5b5050600554600354600160a060020a039182169163a9059cbb9116620001f66310967be564010000000062000447810204565b6040518363ffffffff167c01000000000000000000000000000000000000000000000000000000000281526004018083600160a060020a0316600160a060020a0316815260200182815260200192505050602060405180830381600087803b1580156200026257600080fd5b505af115801562000277573d6000803e3d6000fd5b505050506040513d60208110156200028e57600080fd5b5050600554600354600160a060020a039182169163a9059cbb9116620002c1630264c57064010000000062000447810204565b6040518363ffffffff167c01000000000000000000000000000000000000000000000000000000000281526004018083600160a060020a0316600160a060020a0316815260200182815260200192505050602060405180830381600087803b1580156200032d57600080fd5b505af115801562000342573d6000803e3d6000fd5b505050506040513d60208110156200035957600080fd5b5050600554600354600160a060020a0391821691639754a4d991166200038c63132cca1b64010000000062000447810204565b60018054604080517c010000000000000000000000000000000000000000000000000000000063ffffffff8816028152600160a060020a03909516600486015260248501939093526001604060020a0380821660448601526301dfe2009091011660648401819052608484015260a4830152600060c48301819052905160e48084019382900301818387803b1580156200042557600080fd5b505af11580156200043a573d6000803e3d6000fd5b505050505050506200093e565b670de0b6b3a76400000290565b600554600160a060020a0316639754a4d9739c160d7450400b59aa3e7d1a8cc4bf664859ab4b620004926302625a0064010000000062000447810204565b60018054604080517c010000000000000000000000000000000000000000000000000000000063ffffffff8816028152600160a060020a03909516600486015260248501939093526001604060020a03808816604486015262eff1008201811660648601526301dfe20090910116608484015260a4830152600060c48301819052905160e48084019382900301818387803b1580156200053157600080fd5b505af115801562000546573d6000803e3d6000fd5b5050600554600160a060020a03169150639754a4d990507397251aa8f0a71b10e90077aebabed0c1e26264556200058a6302625a0064010000000062000447810204565b60018054604080517c010000000000000000000000000000000000000000000000000000000063ffffffff8816028152600160a060020a03909516600486015260248501939093526001604060020a03808816604486015262eff1008201811660648601526301dfe20090910116608484015260a4830152600060c48301819052905160e48084019382900301818387803b1580156200062957600080fd5b505af11580156200063e573d6000803e3d6000fd5b5050600554600160a060020a03169150639754a4d9905073ba361d8b9a6d7ce1603cf526604ce5431ecc0e76620006826302625a0064010000000062000447810204565b60018054604080517c010000000000000000000000000000000000000000000000000000000063ffffffff8816028152600160a060020a03909516600486015260248501939093526001604060020a03808816604486015262eff1008201811660648601526301dfe20090910116608484015260a4830152600060c48301819052905160e48084019382900301818387803b1580156200072157600080fd5b505af115801562000736573d6000803e3d6000fd5b5050600554600160a060020a03169150639754a4d99050730c60180e5f1def7daa947f88bf840dcef8a27f536200077a6302625a0064010000000062000447810204565b60018054604080517c010000000000000000000000000000000000000000000000000000000063ffffffff8816028152600160a060020a03909516600486015260248501939093526001604060020a03808816604486015262eff1008201811660648601526301dfe20090910116608484015260a4830152600060c48301819052905160e48084019382900301818387803b1580156200081957600080fd5b505af11580156200082e573d6000803e3d6000fd5b5050600554600160a060020a03169150639754a4d99050733f0c1028d5f55caa11208173d8ae09d42c3ff5b0620008726302625a0064010000000062000447810204565b60018054604080517c010000000000000000000000000000000000000000000000000000000063ffffffff8816028152600160a060020a03909516600486015260248501939093526001604060020a03808816604486015262eff1008201811660648601526301dfe20090910116608484015260a4830152600060c48301819052905160e48084019382900301818387803b1580156200091157600080fd5b505af115801562000926573d6000803e3d6000fd5b5050505050565b604051611743806200131783390190565b6109c9806200094e6000396000f30060806040526004361061017f5763ffffffff7c0100000000000000000000000000000000000000000000000000000000600035041663031f22e781146102015780632c27e58114610228578063313ce5671461023d57806332cb6b0c1461025257806333e16ddb1461026757806344f5b21c1461028a57806345b5e10b1461029f5780634caeebd0146102d05780635462870d146102e5578063565cee48146102fa5780635fd1bbc41461030f5780636698baaa146103245780636f2590771461033957806373cc243c146102fa578063764300bf1461034e5780637717403b146103635780638a4b08d9146103785780638c3466901461038d5780638d17590b146103a75780638f84aa09146103bc5780638fd712ae146103d15780639890220b146103e6578063a000aeb7146103fb578063b9b8af0b14610410578063bd8e68c914610439578063cbaf4e3d1461044e578063e02f8d3314610463578063e78e33cf14610478578063ec81b4831461048d578063f514f0f9146104a2575b6000805442108061019257506001544210155b1561019c57600080fd5b60085460ff16156101ac57600080fd5b6101bd336101b86104b7565b61052a565b604080518281529051919250600160a060020a033316917fe3d4187f6ca4248660cc0ac8b8056515bac4a8132be2eca31d6d0cc170722a7e9181900360200190a250005b34801561020d57600080fd5b506102166106a9565b60408051918252519081900360200190f35b34801561023457600080fd5b506102166106b7565b34801561024957600080fd5b506102166106bd565b34801561025e57600080fd5b506102166106c2565b34801561027357600080fd5b50610288600160a060020a03600435166106cf565b005b34801561029657600080fd5b506102166107ca565b3480156102ab57600080fd5b506102b46107d7565b60408051600160a060020a039092168252519081900360200190f35b3480156102dc57600080fd5b506102166107e6565b3480156102f157600080fd5b506102b46107ed565b34801561030657600080fd5b506102166107fc565b34801561031b57600080fd5b50610216610809565b34801561033057600080fd5b5061021661080f565b34801561034557600080fd5b50610216610816565b34801561035a57600080fd5b5061021661081d565b34801561036f57600080fd5b5061021661082a565b34801561038457600080fd5b506102166104b7565b34801561039957600080fd5b506102886004351515610837565b3480156103b357600080fd5b50610216610865565b3480156103c857600080fd5b506102b4610872565b3480156103dd57600080fd5b50610216610881565b3480156103f257600080fd5b5061028861088c565b34801561040757600080fd5b506102166108de565b34801561041c57600080fd5b506104256108e4565b604080519115158252519081900360200190f35b34801561044557600080fd5b506102166108ed565b34801561045a57600080fd5b506102b46108f8565b34801561046f57600080fd5b50610216610907565b34801561048457600080fd5b50610216610912565b34801561049957600080fd5b50610216610918565b3480156104ae57600080fd5b50610216610926565b60008054620151800142116104d8576104d16117cd61092d565b9050610527565b60005462093a800142116104f1576104d16115f861092d565b6000546212750001421161050a576104d161142361092d565b6000546224ea00014211610523576104d161124f61092d565b5060005b90565b6000610554670de0b6b3a7640000610548348563ffffffff61093a16565b9063ffffffff61096516565b90506910f0cf064dd5920000006105763460065461097c90919063ffffffff16565b118061059f575061058a633936049061092d565b60075461059d908363ffffffff61097c16565b115b156105a957600080fd5b600254604051600160a060020a03909116903480156108fc02916000818181858888f1935050505015156105dc57600080fd5b600554604080517fa9059cbb000000000000000000000000000000000000000000000000000000008152600160a060020a038681166004830152602482018590529151919092169163a9059cbb9160448083019260209291908290030181600087803b15801561064b57600080fd5b505af115801561065f573d6000803e3d6000fd5b505050506040513d602081101561067557600080fd5b505060065461068a903463ffffffff61097c16565b6006556007546106a0908263ffffffff61097c16565b60075592915050565b6106b46115f861092d565b81565b60015481565b601281565b6106b4637735940061092d565b60045433600160a060020a039081169116146106ea57600080fd5b6001544210156106f957600080fd5b600554600754600160a060020a039091169063a9059cbb90839061073090610724633936049061092d565b9063ffffffff61098b16565b6040518363ffffffff167c01000000000000000000000000000000000000000000000000000000000281526004018083600160a060020a0316600160a060020a0316815260200182815260200192505050602060405180830381600087803b15801561079b57600080fd5b505af11580156107af573d6000803e3d6000fd5b505050506040513d60208110156107c557600080fd5b505050565b6106b4630264c57061092d565b600554600160a060020a031681565b6224ea0081565b600254600160a060020a031681565b6106b4630bebc20061092d565b60005481565b62093a8081565b6201518081565b6106b46310967be561092d565b6106b4633936049061092d565b60045433600160a060020a0390811691161461085257600080fd5b6008805460ff1916911515919091179055565b6106b463132cca1b61092d565b600454600160a060020a031681565b6106b46117cd61092d565b60045433600160a060020a039081169116146108a757600080fd5b600454604051600160a060020a039182169130163180156108fc02916000818181858888f1935050505015156108dc57600080fd5b565b60065481565b60085460ff1681565b6106b461124f61092d565b600354600160a060020a031681565b6106b461142361092d565b60075481565b6910f0cf064dd59200000081565b6212750081565b670de0b6b3a76400000290565b6000828202831580610956575082848281151561095357fe5b04145b151561095e57fe5b9392505050565b600080828481151561097357fe5b04949350505050565b60008282018381101561095e57fe5b60008282111561099757fe5b509003905600a165627a7a723058208d97e48a573ad761e89fca8079f7f19746f3e18204203f1ae0e531783267986b00296080604052601460035534801561001557600080fd5b506040516020806117438339810160409081529051600081815560058054600160a060020a033316600160a060020a0319909116811790915581526001602052919091205560026003556116d58061006e6000396000f3006080604052600436106101115763ffffffff7c010000000000000000000000000000000000000000000000000000000060003504166302a72a4c811461012357806302d05d3f1461015657806306fdde0314610187578063095ea7b3146102115780630e2d1a2a1461024957806318160ddd1461026a57806323b872dd1461027f5780632c71e60a146102a9578063313ce5671461031f578063600e85b7146103345780636c182e99146103b357806370a08231146103f157806395d89b41146104125780639754a4d9146104275780639890220b14610470578063a9059cbb14610485578063d347c205146104a9578063dd62ed3e146104d7578063df3c211b146104fe578063eb944e4c14610522575b34801561011d57600080fd5b50600080fd5b34801561012f57600080fd5b50610144600160a060020a0360043516610546565b60408051918252519081900360200190f35b34801561016257600080fd5b5061016b610561565b60408051600160a060020a039092168252519081900360200190f35b34801561019357600080fd5b5061019c610570565b6040805160208082528351818301528351919283929083019185019080838360005b838110156101d65781810151838201526020016101be565b50505050905090810190601f1680156102035780820380516001836020036101000a031916815260200191505b509250505060405180910390f35b34801561021d57600080fd5b50610235600160a060020a03600435166024356105a7565b604080519115158252519081900360200190f35b34801561025557600080fd5b50610144600160a060020a036004351661064a565b34801561027657600080fd5b5061014461065c565b34801561028b57600080fd5b50610235600160a060020a0360043581169060243516604435610662565b3480156102b557600080fd5b506102cd600160a060020a0360043516602435610691565b60408051600160a060020a039098168852602088019690965267ffffffffffffffff9485168787015292841660608701529216608085015290151560a0840152151560c0830152519081900360e00190f35b34801561032b57600080fd5b50610144610722565b34801561034057600080fd5b50610358600160a060020a0360043516602435610727565b60408051600160a060020a03909916895260208901979097528787019590955267ffffffffffffffff9384166060880152918316608087015290911660a0850152151560c0840152151560e083015251908190036101000190f35b3480156103bf57600080fd5b506103d4600160a060020a036004351661093c565b6040805167ffffffffffffffff9092168252519081900360200190f35b3480156103fd57600080fd5b50610144600160a060020a03600435166109c6565b34801561041e57600080fd5b5061019c6109e1565b34801561043357600080fd5b5061046e600160a060020a036004351660243567ffffffffffffffff6044358116906064358116906084351660a435151560c4351515610a18565b005b34801561047c57600080fd5b5061046e610c99565b34801561049157600080fd5b50610235600160a060020a0360043516602435610ceb565b3480156104b557600080fd5b50610144600160a060020a036004351667ffffffffffffffff60243516610d18565b3480156104e357600080fd5b50610144600160a060020a0360043581169060243516610e71565b34801561050a57600080fd5b50610144600435602435604435606435608435610e9c565b34801561052e57600080fd5b5061046e600160a060020a0360043516602435610ef4565b600160a060020a031660009081526004602052604090205490565b600554600160a060020a031681565b60408051808201909152600a81527f4367637820546f6b656e00000000000000000000000000000000000000000000602082015281565b60008115806105d95750600160a060020a03338116600090815260026020908152604080832093871683529290522054155b15156105e457600080fd5b600160a060020a03338116600081815260026020908152604080832094881680845294825291829020869055815186815291517f8c5be1e5ebec7d5bd14f71427d1e84f3dd0314c0f7b2291e5b200ac8c7c3b9259281900390910190a350600192915050565b60006106568242610d18565b92915050565b60005481565b600083826106708242610d18565b81111561067c57600080fd5b610687868686611333565b9695505050505050565b6004602052816000526040600020818154811015156106ac57fe5b6000918252602090912060039091020180546001820154600290920154600160a060020a03909116935090915067ffffffffffffffff808216916801000000000000000081048216917001000000000000000000000000000000008204169060ff60c060020a820481169160c860020a90041687565b601281565b6000806000806000806000806000600460008c600160a060020a0316600160a060020a031681526020019081526020016000208a81548110151561076757fe5b906000526020600020906003020190508060000160009054906101000a9004600160a060020a03169850806001015497508060020160109054906101000a900467ffffffffffffffff1695508060020160009054906101000a900467ffffffffffffffff1694508060020160089054906101000a900467ffffffffffffffff1693508060020160189054906101000a900460ff1692508060020160199054906101000a900460ff16915061092c8160e060405190810160405290816000820160009054906101000a9004600160a060020a0316600160a060020a0316600160a060020a03168152602001600182015481526020016002820160009054906101000a900467ffffffffffffffff1667ffffffffffffffff1667ffffffffffffffff1681526020016002820160089054906101000a900467ffffffffffffffff1667ffffffffffffffff1667ffffffffffffffff1681526020016002820160109054906101000a900467ffffffffffffffff1667ffffffffffffffff1667ffffffffffffffff1681526020016002820160189054906101000a900460ff161515151581526020016002820160199054906101000a900460ff16151515158152505042611446565b9650509295985092959890939650565b600160a060020a03811660009081526004602052604081205442915b818110156109bf57600160a060020a038416600090815260046020526040902080546109b591908390811061098957fe5b906000526020600020906003020160020160089054906101000a900467ffffffffffffffff1684611494565b9250600101610958565b5050919050565b600160a060020a031660009081526001602052604090205490565b60408051808201909152600381527f4347580000000000000000000000000000000000000000000000000000000000602082015281565b60008567ffffffffffffffff168567ffffffffffffffff1610158015610a5257508467ffffffffffffffff168467ffffffffffffffff1610155b1515610a5d57600080fd5b600354610a6989610546565b10610a7357600080fd5b600160a060020a03881660009081526004602052604090819020815160e08101909252908085610aa4576000610aa6565b335b600160a060020a03908116825260208083018c905267ffffffffffffffff8a81166040808601919091528a82166060808701919091528d83166080808801919091528b151560a0808901919091528b151560c09889015289546001808201808d5560009c8d529b8890208b51600390930201805473ffffffffffffffffffffffffffffffffffffffff19169290991691909117885595890151958701959095559187015160029095018054918801519288015194880151979096015167ffffffffffffffff19909116948316949094176fffffffffffffffff0000000000000000191668010000000000000000918316919091021777ffffffffffffffff00000000000000000000000000000000191670010000000000000000000000000000000092909116919091021778ff000000000000000000000000000000000000000000000000191660c060020a931515939093029290921779ff00000000000000000000000000000000000000000000000000191660c860020a921515929092029190911790559050610c388888610ceb565b5087600160a060020a031633600160a060020a03167ff9565aecd648a0466ffb964a79eeccdf1120ad6276189c687a6e9fe73984d9bb8960018503604051808381526020018281526020019250505060405180910390a35050505050505050565b60055433600160a060020a03908116911614610cb457600080fd5b600554604051600160a060020a039182169130163180156108fc02916000818181858888f193505050501515610ce957600080fd5b565b60003382610cf98242610d18565b811115610d0557600080fd5b610d0f85856114bf565b95945050505050565b6000806000806000610d2987610546565b9350831515610d4357610d3c878761157e565b9450610e67565b60009250600091505b83821015610e3d57600160a060020a03871660009081526004602052604090208054610e30918591610e2b919086908110610d8357fe5b60009182526020918290206040805160e08101825260039093029091018054600160a060020a0316835260018101549383019390935260029092015467ffffffffffffffff80821693830193909352680100000000000000008104831660608301527001000000000000000000000000000000008104909216608082015260ff60c060020a83048116151560a083015260c860020a909204909116151560c082015289611589565b6115a9565b9250600190910190610d4c565b610e4f610e49886109c6565b846115b8565b9050610e6481610e5f898961157e565b6115ca565b94505b5050505092915050565b600160a060020a03918216600090815260026020908152604080832093909416825291909152205490565b60008083861015610eb05760009150610eea565b828610610ebf57869150610eea565b610ee4610ed588610ed089896115b8565b6115d9565b610edf85886115b8565b6115fd565b90508091505b5095945050505050565b600160a060020a038216600090815260046020526040812080548291829185908110610f1c57fe5b906000526020600020906003020192508260020160189054906101000a900460ff161515610f4957600080fd5b825433600160a060020a03908116911614610f6357600080fd5b600283015460c860020a900460ff16610f7c5733610f80565b61dead5b6040805160e0810182528554600160a060020a0316815260018601546020820152600286015467ffffffffffffffff80821693830193909352680100000000000000008104831660608301527001000000000000000000000000000000008104909216608082015260ff60c060020a83048116151560a083015260c860020a909204909116151560c08201529092506110199042611589565b600160a060020a03861660009081526004602052604090208054919250908590811061104157fe5b600091825260208083206003909202909101805473ffffffffffffffffffffffffffffffffffffffff1916815560018082018490556002909101805479ffffffffffffffffffffffffffffffffffffffffffffffffffff19169055600160a060020a038816835260049091526040909120805490916110c6919063ffffffff6115b816565b815481106110d057fe5b90600052602060002090600302016004600087600160a060020a0316600160a060020a031681526020019081526020016000208581548110151561111057fe5b600091825260208083208454600390930201805473ffffffffffffffffffffffffffffffffffffffff1916600160a060020a03938416178155600180860154908201556002948501805495909101805467ffffffffffffffff191667ffffffffffffffff96871617808255825468010000000000000000908190048816026fffffffffffffffff0000000000000000199091161780825582547001000000000000000000000000000000009081900490971690960277ffffffffffffffff000000000000000000000000000000001990961695909517808655815460ff60c060020a918290048116151590910278ff0000000000000000000000000000000000000000000000001990921691909117808755915460c860020a9081900490911615150279ff00000000000000000000000000000000000000000000000000199091161790935587168152600490915260409020805460001901906112749082611614565b50600160a060020a03821660009081526001602052604090205461129e908263ffffffff6115a916565b600160a060020a0380841660009081526001602052604080822093909355908716815220546112d3908263ffffffff6115b816565b600160a060020a0380871660008181526001602090815260409182902094909455805185815290519286169391927fddf252ad1be2c89b69c2b068fc378daa952ba7f163c4a11628f55a4df523b3ef929181900390910190a35050505050565b600160a060020a03808416600090815260026020908152604080832033851684528252808320549386168352600190915281205490919061137a908463ffffffff6115a916565b600160a060020a0380861660009081526001602052604080822093909355908716815220546113af908463ffffffff6115b816565b600160a060020a0386166000908152600160205260409020556113d8818463ffffffff6115b816565b600160a060020a038087166000818152600260209081526040808320338616845282529182902094909455805187815290519288169391927fddf252ad1be2c89b69c2b068fc378daa952ba7f163c4a11628f55a4df523b3ef929181900390910190a3506001949350505050565b600061148d83602001518367ffffffffffffffff16856080015167ffffffffffffffff16866040015167ffffffffffffffff16876060015167ffffffffffffffff16610e9c565b9392505050565b60008167ffffffffffffffff168367ffffffffffffffff1610156114b8578161148d565b5090919050565b600160a060020a0333166000908152600160205260408120546114e8908363ffffffff6115b816565b600160a060020a03338116600090815260016020526040808220939093559085168152205461151d908363ffffffff6115a916565b600160a060020a038085166000818152600160209081526040918290209490945580518681529051919333909316927fddf252ad1be2c89b69c2b068fc378daa952ba7f163c4a11628f55a4df523b3ef92918290030190a350600192915050565b600061148d836109c6565b600061148d6115988484611446565b60208501519063ffffffff6115b816565b60008282018381101561148d57fe5b6000828211156115c457fe5b50900390565b60008183106114b8578161148d565b60008282028315806115f557508284828115156115f257fe5b04145b151561148d57fe5b600080828481151561160b57fe5b04949350505050565b815481835581811115611640576003028160030283600052602060002091820191016116409190611645565b505050565b6116a691905b808211156116a257805473ffffffffffffffffffffffffffffffffffffffff191681556000600182015560028101805479ffffffffffffffffffffffffffffffffffffffffffffffffffff1916905560030161164b565b5090565b905600a165627a7a72305820a645adf129d67e487dbdeab514f5a58335d50e6b5b42c992ae369ae5e13aacfb0029",
  "source": "pragma solidity ^0.4.8;\n\nimport \"./CGXToken.sol\";\n// import \"./SafeMath.sol\";\nimport 'zeppelin-solidity/contracts/math/SafeMath.sol';\n\ncontract Contribution /*is SafeMath*/ {\n\tusing SafeMath for uint;\n\n\tuint public constant decimals = 18;  // 18 decimal places, the same as ETH.\n\n\t//CONSTANTS\n\t//Time limits\n\tuint public constant STAGE_ONE_TIME_END \t= 1 days;\n\tuint public constant STAGE_TWO_TIME_END \t= 1 weeks;\n\tuint public constant STAGE_THREE_TIME_END\t= 2 weeks;\n\tuint public constant STAGE_FOUR_TIME_END \t= 4 weeks;\n\n\t//CGXToken Token Limits\n\tuint public constant CAP \t\t\t\t\t= 80000 ether;\n\tuint public constant MAX_SUPPLY \t\t\t= decimalMulti(2000000000); //2 billion CGX\n\n\t// allocations\n\tuint public constant ALLOC_FOUNDER_CONTRIB\t= decimalMulti(200000000);\n\tuint public constant ALLOC_ILLIQUID_TEAM \t= decimalMulti(200000000);\n\tuint public constant ALLOC_MARKETING \t\t= decimalMulti(278297573);\n\tuint public constant ALLOC_SAFT \t\t\t= decimalMulti(40158576);\n\tuint public constant ALLOC_COMPANY \t\t\t= decimalMulti(321702427);\n\tuint public constant ALLOC_CROWDSALE \t\t= decimalMulti(959841424);\n\n\t//Prices of CGXToken\n\tuint public constant PRICE_STAGE_FOUR \t= decimalMulti(4687); // 0% bonus\n\tuint public constant PRICE_STAGE_THREE \t= decimalMulti(5155); // 10% bonus\n\tuint public constant PRICE_STAGE_TWO \t= decimalMulti(5624); // 20% bonus\n\tuint public constant PRICE_STAGE_ONE \t= decimalMulti(6093); // 30% bonus\n\n\t//ASSIGNED IN INITIALIZATION\n\t//Start and end times\n\tuint public publicStartTime; //Time in seconds public crowd fund starts.\n\tuint public publicEndTime; //Time in seconds crowdsale ends\n\t//Special Addresses\n\taddress public multisigAddress; //Address to which all ether flows.\n\taddress public cgcxAddress; //Address to which ALLOC_MARKETING, ALLOC_FOUNDER_CONTRIB, ALLOC_NEW_USERS, ALLOC_ILLIQUID_TEAM is sent to.\n\taddress public ownerAddress; //Address of the contract owner. Can halt the crowdsale.\n\t//Contracts\n\tCGXToken public cgxToken; //External token contract hollding the CGXToken\n\t//Running totals\n\tuint public weiReceived; //Total wei raised.\n\tuint public cgxSold; //Total CGXToken created\n\n\t//booleans\n\tbool public halted; //halts the crowd sale if true.\n\n\t//FUNCTION MODIFIERS\n\n\t//Is currently in the period after the private start time and before the public start time.\n\tmodifier is_post_crowdfund_period() {\n\t\tif (now < publicEndTime) throw;\n\t\t_;\n\t}\n\n\t//Is currently the crowdfund period\n\tmodifier is_crowdfund_period() {\n\t\tif (now < publicStartTime || now >= publicEndTime) throw;\n\t\t_;\n\t}\n\n\t//May only be called by the owner address\n\tmodifier only_owner() {\n\t\tif (msg.sender != ownerAddress) throw;\n\t\t_;\n\t}\n\n\t//May only be called if the crowdfund has not been halted\n\tmodifier is_not_halted() {\n\t\tif (halted) throw;\n\t\t_;\n\t}\n\n\t// EVENTS\n\tevent Buy(address indexed _recipient, uint _amount);\n\n\n\t// FUNCTIONS\n\n\t// giving a number of CGX as input will return elevated to the decimal precision\n\tfunction decimalMulti(uint input) private returns (uint) {\n\t\treturn input * 10 ** decimals;\n\t}\n\n\t//Initialization function. Deploys CGXToken contract assigns values, to all remaining fields, creates first entitlements in the cgx Token contract.\n\tfunction Contribution(\n\t\taddress _multisig,\n\t\taddress _cgcx,\n\t\tuint _publicStartTime\n\t) {\n\t\townerAddress = msg.sender;\n\t\tpublicStartTime = _publicStartTime;\n\t\tpublicEndTime = _publicStartTime + STAGE_FOUR_TIME_END; // end of Contribution\n\t\tmultisigAddress = _multisig;\n\t\tcgcxAddress = _cgcx;\n\n\t\tcgxToken = new CGXToken(MAX_SUPPLY); // all tokens initially assigned to this contract\n\n\t\t// team\n\t\tallocateTokensWithVestingToTeam(publicEndTime);\n\t\tcgxToken.transfer(cgcxAddress, ALLOC_FOUNDER_CONTRIB);\n\n\t\t// marketing\n\t\tcgxToken.transfer(cgcxAddress, ALLOC_MARKETING);\n\n\t\t// saft token allocations\n\t\tcgxToken.transfer(cgcxAddress, ALLOC_SAFT);\n\n\t\t// company\n\t\tcgxToken.grantVestedTokens(cgcxAddress,\n\t\t\t\tALLOC_COMPANY,\n\t\t\t\tuint64(publicEndTime),\n\t\t\t\tuint64(publicEndTime + (52 weeks)), // cliff of 1 year\n\t\t\t\tuint64(publicEndTime + (52 weeks)), // no vesting after cliff\n\t\t\t\ttrue,\n\t\t\t\tfalse\n\t\t\t); // 29%\n\n\t\t// leaves 48.75% for crowdsale\n\t}\n\n\tfunction allocateTokensWithVestingToTeam(uint time) private {\n\t\tcgxToken.grantVestedTokens(0x9c160d7450400b59AA3e7D1a8cc4Bf664859aB4B,\n\t\t\t\tdecimalMulti(40000000),\n\t\t\t\tuint64(time),\n\t\t\t\tuint64(publicEndTime + (26 weeks)), // cliff of 6 months\n\t\t\t\tuint64(publicEndTime + (52 weeks)), // vesting of 1 year\n\t\t\t\ttrue,\n\t\t\t\tfalse\n\t\t\t); // team 1\n\t\tcgxToken.grantVestedTokens(0x97251AA8f0a71b10E90077AebabEd0c1e2626455,\n\t\t\t\tdecimalMulti(40000000),\n\t\t\t\tuint64(time),\n\t\t\t\tuint64(publicEndTime + (26 weeks)), // cliff of 6 months\n\t\t\t\tuint64(publicEndTime + (52 weeks)), // vesting of 1 year\n\t\t\t\ttrue,\n\t\t\t\tfalse\n\t\t\t); // team 2\n\t\tcgxToken.grantVestedTokens(0xBA361d8b9A6D7CE1603Cf526604ce5431ecc0E76,\n\t\t\t\tdecimalMulti(40000000),\n\t\t\t\tuint64(time),\n\t\t\t\tuint64(publicEndTime + (26 weeks)), // cliff of 6 months\n\t\t\t\tuint64(publicEndTime + (52 weeks)), // vesting of 1 year\n\t\t\t\ttrue,\n\t\t\t\tfalse\n\t\t\t); // team 3\n\t\tcgxToken.grantVestedTokens(0x0C60180e5F1dEf7Daa947F88bF840dCeF8A27f53,\n\t\t\t\tdecimalMulti(40000000),\n\t\t\t\tuint64(time),\n\t\t\t\tuint64(publicEndTime + (26 weeks)), // cliff of 6 months\n\t\t\t\tuint64(publicEndTime + (52 weeks)), // vesting of 1 year\n\t\t\t\ttrue,\n\t\t\t\tfalse\n\t\t\t); // team 4\n\t\tcgxToken.grantVestedTokens(0x3f0C1028d5F55CaA11208173D8AE09d42c3ff5B0,\n\t\t\t\tdecimalMulti(40000000),\n\t\t\t\tuint64(time),\n\t\t\t\tuint64(publicEndTime + (26 weeks)), // cliff of 6 months\n\t\t\t\tuint64(publicEndTime + (52 weeks)), // vesting of 1 year\n\t\t\t\ttrue,\n\t\t\t\tfalse\n\t\t\t); // team 5\n\t}\n\n\t//May be used by owner of contract to halt crowdsale and no longer except ether.\n\tfunction toggleHalt(bool _halted)\n\t\tonly_owner\n\t{\n\t\thalted = _halted;\n\t}\n\n\t//constant function returns the current cgx price.\n\tfunction getPriceRate()\n\t\tconstant\n\t\treturns (uint o_rate)\n\t{\n\t\tif (now <= publicStartTime + STAGE_ONE_TIME_END) return PRICE_STAGE_ONE;\n\t\tif (now <= publicStartTime + STAGE_TWO_TIME_END) return PRICE_STAGE_TWO;\n\t\tif (now <= publicStartTime + STAGE_THREE_TIME_END) return PRICE_STAGE_THREE;\n\t\tif (now <= publicStartTime + STAGE_FOUR_TIME_END) return PRICE_STAGE_FOUR;\n\t\telse return 0;\n\t}\n\n\t// Given the rate of a purchase and the remaining tokens in this tranche, it\n\t// will throw if the sale would take it past the limit of the tranche.\n\t// It executes the purchase for the appropriate amount of tokens, which\n\t// involves adding it to the total, minting cgx tokens and stashing the\n\t// ether.\n\t// Returns `amount` in scope as the number of cgx tokens that it will\n\t// purchase.\n\tfunction processPurchase(address _to, uint _rate)\n\t\tinternal\n\t\treturns (uint o_amount)\n\t{\n\n\t\to_amount = msg.value.mul(_rate).div(1 ether);\n\n\t\tif (weiReceived.add(msg.value) > CAP || cgxSold.add(o_amount) > ALLOC_CROWDSALE) throw;\n\n\t\tif (!multisigAddress.send(msg.value)) throw;\n\t\tcgxToken.transfer(_to, o_amount); // will throw if not completed.\n\n\t\tweiReceived = weiReceived.add(msg.value);\n\t\tcgxSold = cgxSold.add(o_amount);\n\t}\n\n\t//Default function called by sending Ether to this address with no arguments.\n\t//Results in creation of new cgx Tokens if transaction would not exceed hard limit of cgx Token.\n\tfunction()\n\t\tpayable\n\t\tis_crowdfund_period\n\t\tis_not_halted\n\t{\n\t\tuint amount = processPurchase(msg.sender, getPriceRate());\n\t\tBuy(msg.sender, amount);\n\t}\n\n\tfunction emptyContribuitionPool(address _to)\n\t\tonly_owner\n\t\tis_post_crowdfund_period\n\t{\n\t\tcgxToken.transfer(_to, (ALLOC_CROWDSALE.sub(cgxSold)));\n\t}\n\n\t//failsafe drain\n\tfunction drain()\n\t\tonly_owner\n\t{\n\t\tif (!ownerAddress.send(this.balance)) throw;\n\t}\n}\n",
  "sourcePath": "/home/neo/Desktop/1/contracts/Contribution.sol",
  "compiler": {
    "name": "solc",
    "version": "0.4.23+commit.124ca40d.Emscripten.clang"
  },
  "schemaVersion": "2.0.0",
  "updatedAt": "2018-05-01T01:23:06.773Z"
}