{
  "contractName": "DayLimit",
  "abi": [
    {
      "constant": true,
      "inputs": [],
      "name": "dailyLimit",
      "outputs": [
        {
          "name": "",
          "type": "uint256"
        }
      ],
      "payable": false,
      "stateMutability": "view",
      "type": "function"
    },
    {
      "constant": true,
      "inputs": [],
      "name": "lastDay",
      "outputs": [
        {
          "name": "",
          "type": "uint256"
        }
      ],
      "payable": false,
      "stateMutability": "view",
      "type": "function"
    },
    {
      "constant": true,
      "inputs": [],
      "name": "spentToday",
      "outputs": [
        {
          "name": "",
          "type": "uint256"
        }
      ],
      "payable": false,
      "stateMutability": "view",
      "type": "function"
    },
    {
      "inputs": [
        {
          "name": "_limit",
          "type": "uint256"
        }
      ],
      "payable": false,
      "stateMutability": "nonpayable",
      "type": "constructor"
    }
  ],
  "bytecode": "0x608060405234801561001057600080fd5b5060405160208061013583398101604052516000819055610038640100000000610041810204565b6002555061004a565b62015180420490565b60dd806100586000396000f30060806040526004361060525763ffffffff7c010000000000000000000000000000000000000000000000000000000060003504166367eeba0c811460575780636b0c932d14607b578063f059cf2b14608d575b600080fd5b348015606257600080fd5b506069609f565b60408051918252519081900360200190f35b348015608657600080fd5b50606960a5565b348015609857600080fd5b50606960ab565b60005481565b60025481565b600154815600a165627a7a7230582014b2c71e0cbdcc7ecb395e8e73e351c33a80e67396bcb644d8c4dc3178987c040029",
  "source": "pragma solidity ^0.4.11;\n\n/**\n * @title DayLimit\n * @dev Base contract that enables methods to be protected by placing a linear limit (specifiable)\n * on a particular resource per calendar day. Is multiowned to allow the limit to be altered.\n */\ncontract DayLimit {\n\n  uint256 public dailyLimit;\n  uint256 public spentToday;\n  uint256 public lastDay;\n\n  /**\n   * @dev Constructor that sets the passed value as a dailyLimit.\n   * @param _limit uint256 to represent the daily limit.\n   */\n  function DayLimit(uint256 _limit) {\n    dailyLimit = _limit;\n    lastDay = today();\n  }\n\n  /**\n   * @dev sets the daily limit. Does not alter the amount already spent today.\n   * @param _newLimit uint256 to represent the new limit.\n   */\n  function _setDailyLimit(uint256 _newLimit) internal {\n    dailyLimit = _newLimit;\n  }\n\n  /**\n   * @dev Resets the amount already spent today.\n   */\n  function _resetSpentToday() internal {\n    spentToday = 0;\n  }\n\n  /**\n   * @dev Checks to see if there is enough resource to spend today. If true, the resource may be expended.\n   * @param _value uint256 representing the amount of resource to spend.\n   * @return A boolean that is True if the resource was spended and false otherwise.\n   */\n  function underLimit(uint256 _value) internal returns (bool) {\n    // reset the spend limit if we're on a different day to last time.\n    if (today() > lastDay) {\n      spentToday = 0;\n      lastDay = today();\n    }\n    // check to see if there's enough left - if so, subtract and return true.\n    // overflow protection                    // dailyLimit check\n    if (spentToday + _value >= spentToday && spentToday + _value <= dailyLimit) {\n      spentToday += _value;\n      return true;\n    }\n    return false;\n  }\n\n  /**\n   * @dev Private function to determine today's index\n   * @return uint256 of today's index.\n   */\n  function today() private constant returns (uint256) {\n    return now / 1 days;\n  }\n\n  /**\n   * @dev Simple modifier for daily limit.\n   */\n  modifier limitedDaily(uint256 _value) {\n    require(underLimit(_value));\n    _;\n  }\n}\n",
  "sourcePath": "zeppelin-solidity/contracts/DayLimit.sol",
  "compiler": {
    "name": "solc",
    "version": "0.4.23+commit.124ca40d.Emscripten.clang"
  },
  "schemaVersion": "2.0.0",
  "updatedAt": "2018-05-01T01:17:54.177Z"
}