{
  "contractName": "Shareable",
  "abi": [
    {
      "constant": true,
      "inputs": [],
      "name": "required",
      "outputs": [
        {
          "name": "",
          "type": "uint256"
        }
      ],
      "payable": false,
      "stateMutability": "view",
      "type": "function"
    },
    {
      "inputs": [
        {
          "name": "_owners",
          "type": "address[]"
        },
        {
          "name": "_required",
          "type": "uint256"
        }
      ],
      "payable": false,
      "stateMutability": "nonpayable",
      "type": "constructor"
    },
    {
      "anonymous": false,
      "inputs": [
        {
          "indexed": false,
          "name": "owner",
          "type": "address"
        },
        {
          "indexed": false,
          "name": "operation",
          "type": "bytes32"
        }
      ],
      "name": "Confirmation",
      "type": "event"
    },
    {
      "anonymous": false,
      "inputs": [
        {
          "indexed": false,
          "name": "owner",
          "type": "address"
        },
        {
          "indexed": false,
          "name": "operation",
          "type": "bytes32"
        }
      ],
      "name": "Revoke",
      "type": "event"
    },
    {
      "constant": false,
      "inputs": [
        {
          "name": "_operation",
          "type": "bytes32"
        }
      ],
      "name": "revoke",
      "outputs": [],
      "payable": false,
      "stateMutability": "nonpayable",
      "type": "function"
    },
    {
      "constant": true,
      "inputs": [
        {
          "name": "ownerIndex",
          "type": "uint256"
        }
      ],
      "name": "getOwner",
      "outputs": [
        {
          "name": "",
          "type": "address"
        }
      ],
      "payable": false,
      "stateMutability": "view",
      "type": "function"
    },
    {
      "constant": true,
      "inputs": [
        {
          "name": "_addr",
          "type": "address"
        }
      ],
      "name": "isOwner",
      "outputs": [
        {
          "name": "",
          "type": "bool"
        }
      ],
      "payable": false,
      "stateMutability": "view",
      "type": "function"
    },
    {
      "constant": true,
      "inputs": [
        {
          "name": "_operation",
          "type": "bytes32"
        },
        {
          "name": "_owner",
          "type": "address"
        }
      ],
      "name": "hasConfirmed",
      "outputs": [
        {
          "name": "",
          "type": "bool"
        }
      ],
      "payable": false,
      "stateMutability": "view",
      "type": "function"
    }
  ],
  "bytecode": "0x608060405234801561001057600080fd5b506040516103d13803806103d1833981016040908152815160208084015160028054600160a060020a03191633600160a060020a03169081179091556000908152610101909252928120600190559201915b82518110156100fb57828181518110151561007957fe5b60209081029091010151600160028301610100811061009457fe5b0160006101000a815481600160a060020a030219169083600160a060020a0316021790555080600201610101600085848151811015156100d057fe5b6020908102909101810151600160a060020a0316825281019190915260400160002055600101610062565b600082905561010082111561010f57600080fd5b5050506102b0806101216000396000f30060806040526004361061006c5763ffffffff7c01000000000000000000000000000000000000000000000000000000006000350416632f54bf6e8114610071578063b75c7dc6146100a6578063c2cf7326146100c0578063c41a360a146100e4578063dc8452cd14610118575b600080fd5b34801561007d57600080fd5b50610092600160a060020a036004351661013f565b604080519115158252519081900360200190f35b3480156100b257600080fd5b506100be60043561015c565b005b3480156100cc57600080fd5b50610092600435600160a060020a0360243516610206565b3480156100f057600080fd5b506100fc60043561025b565b60408051600160a060020a039092168252519081900360200190f35b34801561012457600080fd5b5061012d61027e565b60408051918252519081900360200190f35b600160a060020a0316600090815261010160205260408120541190565b600160a060020a03331660009081526101016020526040812054908082151561018457610200565b50506000828152610102602052604081206001810154600284900a9290831611156102005780546001908101825581018054839003905560408051600160a060020a03331681526020810186905281517fc7fb647e59b18047309aa15aad418e5d7ca96d173ad704f1031a2c3d7591734b929181900390910190a15b50505050565b600082815261010260209081526040808320600160a060020a03851684526101019092528220548281151561023e5760009350610252565b8160020a9050808360010154166000141593505b50505092915050565b60006001828101610100811061026d57fe5b0154600160a060020a031692915050565b600054815600a165627a7a723058205162bce0716f31b2fc87c0782dd037fc7c9e7f2b03741a87b0103ba4c37b3adb0029",
  "source": "pragma solidity ^0.4.11;\n\n\n/**\n * @title Shareable\n * @dev inheritable \"property\" contract that enables methods to be protected by requiring the\n * acquiescence of either a single, or, crucially, each of a number of, designated owners.\n * @dev Usage: use modifiers onlyowner (just own owned) or onlymanyowners(hash), whereby the same hash must be provided by some number (specified in constructor) of the set of owners (specified in the constructor) before the interior is executed.\n */\ncontract Shareable {\n\n  // struct for the status of a pending operation.\n  struct PendingState {\n    uint256 yetNeeded;\n    uint256 ownersDone;\n    uint256 index;\n  }\n\n  // the number of owners that must confirm the same operation before it is run.\n  uint256 public required;\n\n  // list of owners\n  address[256] owners;\n  // index on the list of owners to allow reverse lookup\n  mapping(address => uint256) ownerIndex;\n  // the ongoing operations.\n  mapping(bytes32 => PendingState) pendings;\n  bytes32[] pendingsIndex;\n\n\n  // this contract only has six types of events: it can accept a confirmation, in which case\n  // we record owner and operation (hash) alongside it.\n  event Confirmation(address owner, bytes32 operation);\n  event Revoke(address owner, bytes32 operation);\n\n\n  // simple single-sig function modifier.\n  modifier onlyOwner {\n    require(isOwner(msg.sender));\n    _;\n  }\n\n  /**\n   * @dev Modifier for multisig functions.\n   * @param _operation The operation must have an intrinsic hash in order that later attempts can be\n   * realised as the same underlying operation and thus count as confirmations.\n   */\n  modifier onlymanyowners(bytes32 _operation) {\n    if (confirmAndCheck(_operation)) {\n      _;\n    }\n  }\n\n  /**\n   * @dev Constructor is given the number of sigs required to do protected \"onlymanyowners\"\n   * transactions as well as the selection of addresses capable of confirming them.\n   * @param _owners A list of owners.\n   * @param _required The amount required for a transaction to be approved.\n   */\n  function Shareable(address[] _owners, uint256 _required) {\n    owners[1] = msg.sender;\n    ownerIndex[msg.sender] = 1;\n    for (uint256 i = 0; i < _owners.length; ++i) {\n      owners[2 + i] = _owners[i];\n      ownerIndex[_owners[i]] = 2 + i;\n    }\n    required = _required;\n    require(required <= owners.length);\n  }\n\n  /**\n   * @dev Revokes a prior confirmation of the given operation.\n   * @param _operation A string identifying the operation.\n   */\n  function revoke(bytes32 _operation) external {\n    uint256 index = ownerIndex[msg.sender];\n    // make sure they're an owner\n    if (index == 0) {\n      return;\n    }\n    uint256 ownerIndexBit = 2**index;\n    var pending = pendings[_operation];\n    if (pending.ownersDone & ownerIndexBit > 0) {\n      pending.yetNeeded++;\n      pending.ownersDone -= ownerIndexBit;\n      Revoke(msg.sender, _operation);\n    }\n  }\n\n  /**\n   * @dev Gets an owner by 0-indexed position (using numOwners as the count)\n   * @param ownerIndex uint256 The index of the owner\n   * @return The address of the owner\n   */\n  function getOwner(uint256 ownerIndex) external constant returns (address) {\n    return address(owners[ownerIndex + 1]);\n  }\n\n  /**\n   * @dev Checks if given address is an owner.\n   * @param _addr address The address which you want to check.\n   * @return True if the address is an owner and fase otherwise.\n   */\n  function isOwner(address _addr) constant returns (bool) {\n    return ownerIndex[_addr] > 0;\n  }\n\n  /**\n   * @dev Function to check is specific owner has already confirme the operation.\n   * @param _operation The operation identifier.\n   * @param _owner The owner address.\n   * @return True if the owner has confirmed and false otherwise.\n   */\n  function hasConfirmed(bytes32 _operation, address _owner) constant returns (bool) {\n    var pending = pendings[_operation];\n    uint256 index = ownerIndex[_owner];\n\n    // make sure they're an owner\n    if (index == 0) {\n      return false;\n    }\n\n    // determine the bit to set for this owner.\n    uint256 ownerIndexBit = 2**index;\n    return !(pending.ownersDone & ownerIndexBit == 0);\n  }\n\n  /**\n   * @dev Confirm and operation and checks if it's already executable.\n   * @param _operation The operation identifier.\n   * @return Returns true when operation can be executed.\n   */\n  function confirmAndCheck(bytes32 _operation) internal returns (bool) {\n    // determine what index the present sender is:\n    uint256 index = ownerIndex[msg.sender];\n    // make sure they're an owner\n    require(index != 0);\n\n    var pending = pendings[_operation];\n    // if we're not yet working on this operation, switch over and reset the confirmation status.\n    if (pending.yetNeeded == 0) {\n      // reset count of confirmations needed.\n      pending.yetNeeded = required;\n      // reset which owners have confirmed (none) - set our bitmap to 0.\n      pending.ownersDone = 0;\n      pending.index = pendingsIndex.length++;\n      pendingsIndex[pending.index] = _operation;\n    }\n    // determine the bit to set for this owner.\n    uint256 ownerIndexBit = 2**index;\n    // make sure we (the message sender) haven't confirmed this operation previously.\n    if (pending.ownersDone & ownerIndexBit == 0) {\n      Confirmation(msg.sender, _operation);\n      // ok - check if count is enough to go ahead.\n      if (pending.yetNeeded <= 1) {\n        // enough confirmations: reset and run interior.\n        delete pendingsIndex[pendings[_operation].index];\n        delete pendings[_operation];\n        return true;\n      } else {\n        // not enough: record that this owner in particular confirmed.\n        pending.yetNeeded--;\n        pending.ownersDone |= ownerIndexBit;\n      }\n    }\n    return false;\n  }\n\n\n  /**\n   * @dev Clear the pending list.\n   */\n  function clearPending() internal {\n    uint256 length = pendingsIndex.length;\n    for (uint256 i = 0; i < length; ++i) {\n      if (pendingsIndex[i] != 0) {\n        delete pendings[pendingsIndex[i]];\n      }\n    }\n    delete pendingsIndex;\n  }\n\n}\n",
  "sourcePath": "zeppelin-solidity/contracts/ownership/Shareable.sol",
  "compiler": {
    "name": "solc",
    "version": "0.4.23+commit.124ca40d.Emscripten.clang"
  },
  "schemaVersion": "2.0.0",
  "updatedAt": "2018-05-01T01:17:54.179Z"
}