{
  "contractName": "VestedToken",
  "abi": [
    {
      "constant": false,
      "inputs": [
        {
          "name": "_spender",
          "type": "address"
        },
        {
          "name": "_value",
          "type": "uint256"
        }
      ],
      "name": "approve",
      "outputs": [
        {
          "name": "",
          "type": "bool"
        }
      ],
      "payable": false,
      "stateMutability": "nonpayable",
      "type": "function"
    },
    {
      "constant": true,
      "inputs": [],
      "name": "totalSupply",
      "outputs": [
        {
          "name": "",
          "type": "uint256"
        }
      ],
      "payable": false,
      "stateMutability": "view",
      "type": "function"
    },
    {
      "constant": false,
      "inputs": [
        {
          "name": "_from",
          "type": "address"
        },
        {
          "name": "_to",
          "type": "address"
        },
        {
          "name": "_value",
          "type": "uint256"
        }
      ],
      "name": "transferFrom",
      "outputs": [
        {
          "name": "",
          "type": "bool"
        }
      ],
      "payable": false,
      "stateMutability": "nonpayable",
      "type": "function"
    },
    {
      "constant": true,
      "inputs": [
        {
          "name": "",
          "type": "address"
        },
        {
          "name": "",
          "type": "uint256"
        }
      ],
      "name": "grants",
      "outputs": [
        {
          "name": "granter",
          "type": "address"
        },
        {
          "name": "value",
          "type": "uint256"
        },
        {
          "name": "cliff",
          "type": "uint64"
        },
        {
          "name": "vesting",
          "type": "uint64"
        },
        {
          "name": "start",
          "type": "uint64"
        },
        {
          "name": "revokable",
          "type": "bool"
        },
        {
          "name": "burnsOnRevoke",
          "type": "bool"
        }
      ],
      "payable": false,
      "stateMutability": "view",
      "type": "function"
    },
    {
      "constant": true,
      "inputs": [
        {
          "name": "_owner",
          "type": "address"
        }
      ],
      "name": "balanceOf",
      "outputs": [
        {
          "name": "balance",
          "type": "uint256"
        }
      ],
      "payable": false,
      "stateMutability": "view",
      "type": "function"
    },
    {
      "constant": false,
      "inputs": [
        {
          "name": "_to",
          "type": "address"
        },
        {
          "name": "_value",
          "type": "uint256"
        }
      ],
      "name": "transfer",
      "outputs": [
        {
          "name": "",
          "type": "bool"
        }
      ],
      "payable": false,
      "stateMutability": "nonpayable",
      "type": "function"
    },
    {
      "constant": true,
      "inputs": [
        {
          "name": "_owner",
          "type": "address"
        },
        {
          "name": "_spender",
          "type": "address"
        }
      ],
      "name": "allowance",
      "outputs": [
        {
          "name": "remaining",
          "type": "uint256"
        }
      ],
      "payable": false,
      "stateMutability": "view",
      "type": "function"
    },
    {
      "anonymous": false,
      "inputs": [
        {
          "indexed": true,
          "name": "from",
          "type": "address"
        },
        {
          "indexed": true,
          "name": "to",
          "type": "address"
        },
        {
          "indexed": false,
          "name": "value",
          "type": "uint256"
        },
        {
          "indexed": false,
          "name": "grantId",
          "type": "uint256"
        }
      ],
      "name": "NewTokenGrant",
      "type": "event"
    },
    {
      "anonymous": false,
      "inputs": [
        {
          "indexed": true,
          "name": "owner",
          "type": "address"
        },
        {
          "indexed": true,
          "name": "spender",
          "type": "address"
        },
        {
          "indexed": false,
          "name": "value",
          "type": "uint256"
        }
      ],
      "name": "Approval",
      "type": "event"
    },
    {
      "anonymous": false,
      "inputs": [
        {
          "indexed": true,
          "name": "from",
          "type": "address"
        },
        {
          "indexed": true,
          "name": "to",
          "type": "address"
        },
        {
          "indexed": false,
          "name": "value",
          "type": "uint256"
        }
      ],
      "name": "Transfer",
      "type": "event"
    },
    {
      "constant": false,
      "inputs": [
        {
          "name": "_to",
          "type": "address"
        },
        {
          "name": "_value",
          "type": "uint256"
        },
        {
          "name": "_start",
          "type": "uint64"
        },
        {
          "name": "_cliff",
          "type": "uint64"
        },
        {
          "name": "_vesting",
          "type": "uint64"
        },
        {
          "name": "_revokable",
          "type": "bool"
        },
        {
          "name": "_burnsOnRevoke",
          "type": "bool"
        }
      ],
      "name": "grantVestedTokens",
      "outputs": [],
      "payable": false,
      "stateMutability": "nonpayable",
      "type": "function"
    },
    {
      "constant": false,
      "inputs": [
        {
          "name": "_holder",
          "type": "address"
        },
        {
          "name": "_grantId",
          "type": "uint256"
        }
      ],
      "name": "revokeTokenGrant",
      "outputs": [],
      "payable": false,
      "stateMutability": "nonpayable",
      "type": "function"
    },
    {
      "constant": true,
      "inputs": [
        {
          "name": "holder",
          "type": "address"
        },
        {
          "name": "time",
          "type": "uint64"
        }
      ],
      "name": "transferableTokens",
      "outputs": [
        {
          "name": "",
          "type": "uint256"
        }
      ],
      "payable": false,
      "stateMutability": "view",
      "type": "function"
    },
    {
      "constant": true,
      "inputs": [
        {
          "name": "_holder",
          "type": "address"
        }
      ],
      "name": "tokenGrantsCount",
      "outputs": [
        {
          "name": "index",
          "type": "uint256"
        }
      ],
      "payable": false,
      "stateMutability": "view",
      "type": "function"
    },
    {
      "constant": true,
      "inputs": [
        {
          "name": "tokens",
          "type": "uint256"
        },
        {
          "name": "time",
          "type": "uint256"
        },
        {
          "name": "start",
          "type": "uint256"
        },
        {
          "name": "cliff",
          "type": "uint256"
        },
        {
          "name": "vesting",
          "type": "uint256"
        }
      ],
      "name": "calculateVestedTokens",
      "outputs": [
        {
          "name": "",
          "type": "uint256"
        }
      ],
      "payable": false,
      "stateMutability": "view",
      "type": "function"
    },
    {
      "constant": true,
      "inputs": [
        {
          "name": "_holder",
          "type": "address"
        },
        {
          "name": "_grantId",
          "type": "uint256"
        }
      ],
      "name": "tokenGrant",
      "outputs": [
        {
          "name": "granter",
          "type": "address"
        },
        {
          "name": "value",
          "type": "uint256"
        },
        {
          "name": "vested",
          "type": "uint256"
        },
        {
          "name": "start",
          "type": "uint64"
        },
        {
          "name": "cliff",
          "type": "uint64"
        },
        {
          "name": "vesting",
          "type": "uint64"
        },
        {
          "name": "revokable",
          "type": "bool"
        },
        {
          "name": "burnsOnRevoke",
          "type": "bool"
        }
      ],
      "payable": false,
      "stateMutability": "view",
      "type": "function"
    },
    {
      "constant": true,
      "inputs": [
        {
          "name": "holder",
          "type": "address"
        }
      ],
      "name": "lastTokenIsTransferableDate",
      "outputs": [
        {
          "name": "date",
          "type": "uint64"
        }
      ],
      "payable": false,
      "stateMutability": "view",
      "type": "function"
    }
  ],
  "bytecode": "0x6080604052601460035534801561001557600080fd5b50611485806100256000396000f3006080604052600436106100cf5763ffffffff7c010000000000000000000000000000000000000000000000000000000060003504166302a72a4c81146100d4578063095ea7b31461010757806318160ddd1461013f57806323b872dd146101545780632c71e60a1461017e578063600e85b7146101f45780636c182e991461027357806370a08231146102b15780639754a4d9146102d2578063a9059cbb1461031b578063d347c2051461033f578063dd62ed3e1461036d578063df3c211b14610394578063eb944e4c146103b8575b600080fd5b3480156100e057600080fd5b506100f5600160a060020a03600435166103dc565b60408051918252519081900360200190f35b34801561011357600080fd5b5061012b600160a060020a03600435166024356103f7565b604080519115158252519081900360200190f35b34801561014b57600080fd5b506100f561049a565b34801561016057600080fd5b5061012b600160a060020a03600435811690602435166044356104a0565b34801561018a57600080fd5b506101a2600160a060020a03600435166024356104cf565b60408051600160a060020a039098168852602088019690965267ffffffffffffffff9485168787015292841660608701529216608085015290151560a0840152151560c0830152519081900360e00190f35b34801561020057600080fd5b50610218600160a060020a0360043516602435610560565b60408051600160a060020a03909916895260208901979097528787019590955267ffffffffffffffff9384166060880152918316608087015290911660a0850152151560c0840152151560e083015251908190036101000190f35b34801561027f57600080fd5b50610294600160a060020a0360043516610775565b6040805167ffffffffffffffff9092168252519081900360200190f35b3480156102bd57600080fd5b506100f5600160a060020a03600435166107ff565b3480156102de57600080fd5b50610319600160a060020a036004351660243567ffffffffffffffff6044358116906064358116906084351660a435151560c435151561081a565b005b34801561032757600080fd5b5061012b600160a060020a0360043516602435610a9b565b34801561034b57600080fd5b506100f5600160a060020a036004351667ffffffffffffffff60243516610ac8565b34801561037957600080fd5b506100f5600160a060020a0360043581169060243516610c21565b3480156103a057600080fd5b506100f5600435602435604435606435608435610c4c565b3480156103c457600080fd5b50610319600160a060020a0360043516602435610ca4565b600160a060020a031660009081526004602052604090205490565b60008115806104295750600160a060020a03338116600090815260026020908152604080832093871683529290522054155b151561043457600080fd5b600160a060020a03338116600081815260026020908152604080832094881680845294825291829020869055815186815291517f8c5be1e5ebec7d5bd14f71427d1e84f3dd0314c0f7b2291e5b200ac8c7c3b9259281900390910190a350600192915050565b60005481565b600083826104ae8242610ac8565b8111156104ba57600080fd5b6104c58686866110e3565b9695505050505050565b6004602052816000526040600020818154811015156104ea57fe5b6000918252602090912060039091020180546001820154600290920154600160a060020a03909116935090915067ffffffffffffffff808216916801000000000000000081048216917001000000000000000000000000000000008204169060ff60c060020a820481169160c860020a90041687565b6000806000806000806000806000600460008c600160a060020a0316600160a060020a031681526020019081526020016000208a8154811015156105a057fe5b906000526020600020906003020190508060000160009054906101000a9004600160a060020a03169850806001015497508060020160109054906101000a900467ffffffffffffffff1695508060020160009054906101000a900467ffffffffffffffff1694508060020160089054906101000a900467ffffffffffffffff1693508060020160189054906101000a900460ff1692508060020160199054906101000a900460ff1691506107658160e060405190810160405290816000820160009054906101000a9004600160a060020a0316600160a060020a0316600160a060020a03168152602001600182015481526020016002820160009054906101000a900467ffffffffffffffff1667ffffffffffffffff1667ffffffffffffffff1681526020016002820160089054906101000a900467ffffffffffffffff1667ffffffffffffffff1667ffffffffffffffff1681526020016002820160109054906101000a900467ffffffffffffffff1667ffffffffffffffff1667ffffffffffffffff1681526020016002820160189054906101000a900460ff161515151581526020016002820160199054906101000a900460ff161515151581525050426111f6565b9650509295985092959890939650565b600160a060020a03811660009081526004602052604081205442915b818110156107f857600160a060020a038416600090815260046020526040902080546107ee9190839081106107c257fe5b906000526020600020906003020160020160089054906101000a900467ffffffffffffffff1684611244565b9250600101610791565b5050919050565b600160a060020a031660009081526001602052604090205490565b60008567ffffffffffffffff168567ffffffffffffffff161015801561085457508467ffffffffffffffff168467ffffffffffffffff1610155b151561085f57600080fd5b60035461086b896103dc565b1061087557600080fd5b600160a060020a03881660009081526004602052604090819020815160e081019092529080856108a65760006108a8565b335b600160a060020a03908116825260208083018c905267ffffffffffffffff8a81166040808601919091528a82166060808701919091528d83166080808801919091528b151560a0808901919091528b151560c09889015289546001808201808d5560009c8d529b8890208b51600390930201805473ffffffffffffffffffffffffffffffffffffffff19169290991691909117885595890151958701959095559187015160029095018054918801519288015194880151979096015167ffffffffffffffff19909116948316949094176fffffffffffffffff0000000000000000191668010000000000000000918316919091021777ffffffffffffffff00000000000000000000000000000000191670010000000000000000000000000000000092909116919091021778ff000000000000000000000000000000000000000000000000191660c060020a931515939093029290921779ff00000000000000000000000000000000000000000000000000191660c860020a921515929092029190911790559050610a3a8888610a9b565b5087600160a060020a031633600160a060020a03167ff9565aecd648a0466ffb964a79eeccdf1120ad6276189c687a6e9fe73984d9bb8960018503604051808381526020018281526020019250505060405180910390a35050505050505050565b60003382610aa98242610ac8565b811115610ab557600080fd5b610abf858561126f565b95945050505050565b6000806000806000610ad9876103dc565b9350831515610af357610aec878761132e565b9450610c17565b60009250600091505b83821015610bed57600160a060020a03871660009081526004602052604090208054610be0918591610bdb919086908110610b3357fe5b60009182526020918290206040805160e08101825260039093029091018054600160a060020a0316835260018101549383019390935260029092015467ffffffffffffffff80821693830193909352680100000000000000008104831660608301527001000000000000000000000000000000008104909216608082015260ff60c060020a83048116151560a083015260c860020a909204909116151560c082015289611339565b611359565b9250600190910190610afc565b610bff610bf9886107ff565b84611368565b9050610c1481610c0f898961132e565b61137a565b94505b5050505092915050565b600160a060020a03918216600090815260026020908152604080832093909416825291909152205490565b60008083861015610c605760009150610c9a565b828610610c6f57869150610c9a565b610c94610c8588610c808989611368565b611389565b610c8f8588611368565b6113ad565b90508091505b5095945050505050565b600160a060020a038216600090815260046020526040812080548291829185908110610ccc57fe5b906000526020600020906003020192508260020160189054906101000a900460ff161515610cf957600080fd5b825433600160a060020a03908116911614610d1357600080fd5b600283015460c860020a900460ff16610d2c5733610d30565b61dead5b6040805160e0810182528554600160a060020a0316815260018601546020820152600286015467ffffffffffffffff80821693830193909352680100000000000000008104831660608301527001000000000000000000000000000000008104909216608082015260ff60c060020a83048116151560a083015260c860020a909204909116151560c0820152909250610dc99042611339565b600160a060020a038616600090815260046020526040902080549192509085908110610df157fe5b600091825260208083206003909202909101805473ffffffffffffffffffffffffffffffffffffffff1916815560018082018490556002909101805479ffffffffffffffffffffffffffffffffffffffffffffffffffff19169055600160a060020a03881683526004909152604090912080549091610e76919063ffffffff61136816565b81548110610e8057fe5b90600052602060002090600302016004600087600160a060020a0316600160a060020a0316815260200190815260200160002085815481101515610ec057fe5b600091825260208083208454600390930201805473ffffffffffffffffffffffffffffffffffffffff1916600160a060020a03938416178155600180860154908201556002948501805495909101805467ffffffffffffffff191667ffffffffffffffff96871617808255825468010000000000000000908190048816026fffffffffffffffff0000000000000000199091161780825582547001000000000000000000000000000000009081900490971690960277ffffffffffffffff000000000000000000000000000000001990961695909517808655815460ff60c060020a918290048116151590910278ff0000000000000000000000000000000000000000000000001990921691909117808755915460c860020a9081900490911615150279ff000000000000000000000000000000000000000000000000001990911617909355871681526004909152604090208054600019019061102490826113c4565b50600160a060020a03821660009081526001602052604090205461104e908263ffffffff61135916565b600160a060020a038084166000908152600160205260408082209390935590871681522054611083908263ffffffff61136816565b600160a060020a0380871660008181526001602090815260409182902094909455805185815290519286169391927fddf252ad1be2c89b69c2b068fc378daa952ba7f163c4a11628f55a4df523b3ef929181900390910190a35050505050565b600160a060020a03808416600090815260026020908152604080832033851684528252808320549386168352600190915281205490919061112a908463ffffffff61135916565b600160a060020a03808616600090815260016020526040808220939093559087168152205461115f908463ffffffff61136816565b600160a060020a038616600090815260016020526040902055611188818463ffffffff61136816565b600160a060020a038087166000818152600260209081526040808320338616845282529182902094909455805187815290519288169391927fddf252ad1be2c89b69c2b068fc378daa952ba7f163c4a11628f55a4df523b3ef929181900390910190a3506001949350505050565b600061123d83602001518367ffffffffffffffff16856080015167ffffffffffffffff16866040015167ffffffffffffffff16876060015167ffffffffffffffff16610c4c565b9392505050565b60008167ffffffffffffffff168367ffffffffffffffff161015611268578161123d565b5090919050565b600160a060020a033316600090815260016020526040812054611298908363ffffffff61136816565b600160a060020a0333811660009081526001602052604080822093909355908516815220546112cd908363ffffffff61135916565b600160a060020a038085166000818152600160209081526040918290209490945580518681529051919333909316927fddf252ad1be2c89b69c2b068fc378daa952ba7f163c4a11628f55a4df523b3ef92918290030190a350600192915050565b600061123d836107ff565b600061123d61134884846111f6565b60208501519063ffffffff61136816565b60008282018381101561123d57fe5b60008282111561137457fe5b50900390565b6000818310611268578161123d565b60008282028315806113a557508284828115156113a257fe5b04145b151561123d57fe5b60008082848115156113bb57fe5b04949350505050565b8154818355818111156113f0576003028160030283600052602060002091820191016113f091906113f5565b505050565b61145691905b8082111561145257805473ffffffffffffffffffffffffffffffffffffffff191681556000600182015560028101805479ffffffffffffffffffffffffffffffffffffffffffffffffffff191690556003016113fb565b5090565b905600a165627a7a7230582047f826edfdcb5daa54aca1dcd164951b93efe8bfce1277f8ffe190ca0931b22f0029",
  "source": "pragma solidity ^0.4.11;\n\nimport \"../math/Math.sol\";\nimport \"./StandardToken.sol\";\nimport \"./LimitedTransferToken.sol\";\n\n/**\n * @title Vested token\n * @dev Tokens that can be vested for a group of addresses.\n */\ncontract VestedToken is StandardToken, LimitedTransferToken {\n\n  uint256 MAX_GRANTS_PER_ADDRESS = 20;\n\n  struct TokenGrant {\n    address granter;     // 20 bytes\n    uint256 value;       // 32 bytes\n    uint64 cliff;\n    uint64 vesting;\n    uint64 start;        // 3 * 8 = 24 bytes\n    bool revokable;\n    bool burnsOnRevoke;  // 2 * 1 = 2 bits? or 2 bytes?\n  } // total 78 bytes = 3 sstore per operation (32 per sstore)\n\n  mapping (address => TokenGrant[]) public grants;\n\n  event NewTokenGrant(address indexed from, address indexed to, uint256 value, uint256 grantId);\n\n  /**\n   * @dev Grant tokens to a specified address\n   * @param _to address The address which the tokens will be granted to.\n   * @param _value uint256 The amount of tokens to be granted.\n   * @param _start uint64 Time of the beginning of the grant.\n   * @param _cliff uint64 Time of the cliff period.\n   * @param _vesting uint64 The vesting period.\n   */\n  function grantVestedTokens(\n    address _to,\n    uint256 _value,\n    uint64 _start,\n    uint64 _cliff,\n    uint64 _vesting,\n    bool _revokable,\n    bool _burnsOnRevoke\n  ) public {\n\n    // Check for date inconsistencies that may cause unexpected behavior\n    require(_cliff >= _start && _vesting >= _cliff);\n\n    require(tokenGrantsCount(_to) < MAX_GRANTS_PER_ADDRESS);   // To prevent a user being spammed and have his balance locked (out of gas attack when calculating vesting).\n\n    uint256 count = grants[_to].push(\n                TokenGrant(\n                  _revokable ? msg.sender : 0, // avoid storing an extra 20 bytes when it is non-revokable\n                  _value,\n                  _cliff,\n                  _vesting,\n                  _start,\n                  _revokable,\n                  _burnsOnRevoke\n                )\n              );\n\n    transfer(_to, _value);\n\n    NewTokenGrant(msg.sender, _to, _value, count - 1);\n  }\n\n  /**\n   * @dev Revoke the grant of tokens of a specifed address.\n   * @param _holder The address which will have its tokens revoked.\n   * @param _grantId The id of the token grant.\n   */\n  function revokeTokenGrant(address _holder, uint256 _grantId) public {\n    TokenGrant grant = grants[_holder][_grantId];\n\n    require(grant.revokable);\n    require(grant.granter == msg.sender); // Only granter can revoke it\n\n    address receiver = grant.burnsOnRevoke ? 0xdead : msg.sender;\n\n    uint256 nonVested = nonVestedTokens(grant, uint64(now));\n\n    // remove grant from array\n    delete grants[_holder][_grantId];\n    grants[_holder][_grantId] = grants[_holder][grants[_holder].length.sub(1)];\n    grants[_holder].length -= 1;\n\n    balances[receiver] = balances[receiver].add(nonVested);\n    balances[_holder] = balances[_holder].sub(nonVested);\n\n    Transfer(_holder, receiver, nonVested);\n  }\n\n\n  /**\n   * @dev Calculate the total amount of transferable tokens of a holder at a given time\n   * @param holder address The address of the holder\n   * @param time uint64 The specific time.\n   * @return An uint256 representing a holder's total amount of transferable tokens.\n   */\n  function transferableTokens(address holder, uint64 time) constant public returns (uint256) {\n    uint256 grantIndex = tokenGrantsCount(holder);\n\n    if (grantIndex == 0) return super.transferableTokens(holder, time); // shortcut for holder without grants\n\n    // Iterate through all the grants the holder has, and add all non-vested tokens\n    uint256 nonVested = 0;\n    for (uint256 i = 0; i < grantIndex; i++) {\n      nonVested = SafeMath.add(nonVested, nonVestedTokens(grants[holder][i], time));\n    }\n\n    // Balance - totalNonVested is the amount of tokens a holder can transfer at any given time\n    uint256 vestedTransferable = SafeMath.sub(balanceOf(holder), nonVested);\n\n    // Return the minimum of how many vested can transfer and other value\n    // in case there are other limiting transferability factors (default is balanceOf)\n    return Math.min256(vestedTransferable, super.transferableTokens(holder, time));\n  }\n\n  /**\n   * @dev Check the amount of grants that an address has.\n   * @param _holder The holder of the grants.\n   * @return A uint256 representing the total amount of grants.\n   */\n  function tokenGrantsCount(address _holder) constant returns (uint256 index) {\n    return grants[_holder].length;\n  }\n\n  /**\n   * @dev Calculate amount of vested tokens at a specifc time.\n   * @param tokens uint256 The amount of tokens grantted.\n   * @param time uint64 The time to be checked\n   * @param start uint64 A time representing the begining of the grant\n   * @param cliff uint64 The cliff period.\n   * @param vesting uint64 The vesting period.\n   * @return An uint256 representing the amount of vested tokensof a specif grant.\n   *  transferableTokens\n   *   |                         _/--------   vestedTokens rect\n   *   |                       _/\n   *   |                     _/\n   *   |                   _/\n   *   |                 _/\n   *   |                /\n   *   |              .|\n   *   |            .  |\n   *   |          .    |\n   *   |        .      |\n   *   |      .        |\n   *   |    .          |\n   *   +===+===========+---------+----------> time\n   *      Start       Clift    Vesting\n   */\n  function calculateVestedTokens(\n    uint256 tokens,\n    uint256 time,\n    uint256 start,\n    uint256 cliff,\n    uint256 vesting) constant returns (uint256)\n    {\n      // Shortcuts for before cliff and after vesting cases.\n      if (time < cliff) return 0;\n      if (time >= vesting) return tokens;\n\n      // Interpolate all vested tokens.\n      // As before cliff the shortcut returns 0, we can use just calculate a value\n      // in the vesting rect (as shown in above's figure)\n\n      // vestedTokens = tokens * (time - start) / (vesting - start)\n      uint256 vestedTokens = SafeMath.div(\n                                    SafeMath.mul(\n                                      tokens,\n                                      SafeMath.sub(time, start)\n                                      ),\n                                    SafeMath.sub(vesting, start)\n                                    );\n\n      return vestedTokens;\n  }\n\n  /**\n   * @dev Get all information about a specifc grant.\n   * @param _holder The address which will have its tokens revoked.\n   * @param _grantId The id of the token grant.\n   * @return Returns all the values that represent a TokenGrant(address, value, start, cliff,\n   * revokability, burnsOnRevoke, and vesting) plus the vested value at the current time.\n   */\n  function tokenGrant(address _holder, uint256 _grantId) constant returns (address granter, uint256 value, uint256 vested, uint64 start, uint64 cliff, uint64 vesting, bool revokable, bool burnsOnRevoke) {\n    TokenGrant grant = grants[_holder][_grantId];\n\n    granter = grant.granter;\n    value = grant.value;\n    start = grant.start;\n    cliff = grant.cliff;\n    vesting = grant.vesting;\n    revokable = grant.revokable;\n    burnsOnRevoke = grant.burnsOnRevoke;\n\n    vested = vestedTokens(grant, uint64(now));\n  }\n\n  /**\n   * @dev Get the amount of vested tokens at a specific time.\n   * @param grant TokenGrant The grant to be checked.\n   * @param time The time to be checked\n   * @return An uint256 representing the amount of vested tokens of a specific grant at a specific time.\n   */\n  function vestedTokens(TokenGrant grant, uint64 time) private constant returns (uint256) {\n    return calculateVestedTokens(\n      grant.value,\n      uint256(time),\n      uint256(grant.start),\n      uint256(grant.cliff),\n      uint256(grant.vesting)\n    );\n  }\n\n  /**\n   * @dev Calculate the amount of non vested tokens at a specific time.\n   * @param grant TokenGrant The grant to be checked.\n   * @param time uint64 The time to be checked\n   * @return An uint256 representing the amount of non vested tokens of a specifc grant on the\n   * passed time frame.\n   */\n  function nonVestedTokens(TokenGrant grant, uint64 time) private constant returns (uint256) {\n    return grant.value.sub(vestedTokens(grant, time));\n  }\n\n  /**\n   * @dev Calculate the date when the holder can trasfer all its tokens\n   * @param holder address The address of the holder\n   * @return An uint256 representing the date of the last transferable tokens.\n   */\n  function lastTokenIsTransferableDate(address holder) constant public returns (uint64 date) {\n    date = uint64(now);\n    uint256 grantIndex = grants[holder].length;\n    for (uint256 i = 0; i < grantIndex; i++) {\n      date = Math.max64(grants[holder][i].vesting, date);\n    }\n  }\n}\n",
  "sourcePath": "zeppelin-solidity/contracts/token/VestedToken.sol",
  "compiler": {
    "name": "solc",
    "version": "0.4.23+commit.124ca40d.Emscripten.clang"
  },
  "schemaVersion": "2.0.0",
  "updatedAt": "2018-05-01T01:17:54.182Z"
}